{
  "contractName": "ERC1155HmyManager",
  "abi": [
    {
      "inputs": [
        {
          "internalType": "address",
          "name": "_wallet",
          "type": "address"
        }
      ],
      "payable": false,
      "stateMutability": "nonpayable",
      "type": "constructor"
    },
    {
      "anonymous": false,
      "inputs": [
        {
          "indexed": true,
          "internalType": "address",
          "name": "token",
          "type": "address"
        },
        {
          "indexed": true,
          "internalType": "address",
          "name": "sender",
          "type": "address"
        },
        {
          "indexed": false,
          "internalType": "uint256[]",
          "name": "tokenIds",
          "type": "uint256[]"
        },
        {
          "indexed": false,
          "internalType": "address",
          "name": "recipient",
          "type": "address"
        },
        {
          "indexed": false,
          "internalType": "uint256[]",
          "name": "amounts",
          "type": "uint256[]"
        }
      ],
      "name": "BatchBurned",
      "type": "event"
    },
    {
      "anonymous": false,
      "inputs": [
        {
          "indexed": false,
          "internalType": "address",
          "name": "oneToken",
          "type": "address"
        },
        {
          "indexed": false,
          "internalType": "uint256[]",
          "name": "tokenIds",
          "type": "uint256[]"
        },
        {
          "indexed": false,
          "internalType": "address",
          "name": "recipient",
          "type": "address"
        },
        {
          "indexed": false,
          "internalType": "bytes32",
          "name": "receiptId",
          "type": "bytes32"
        },
        {
          "indexed": false,
          "internalType": "uint256[]",
          "name": "amounts",
          "type": "uint256[]"
        }
      ],
      "name": "BatchMinted",
      "type": "event"
    },
    {
      "anonymous": false,
      "inputs": [
        {
          "indexed": true,
          "internalType": "address",
          "name": "token",
          "type": "address"
        },
        {
          "indexed": true,
          "internalType": "address",
          "name": "sender",
          "type": "address"
        },
        {
          "indexed": false,
          "internalType": "uint256",
          "name": "tokenId",
          "type": "uint256"
        },
        {
          "indexed": false,
          "internalType": "address",
          "name": "recipient",
          "type": "address"
        },
        {
          "indexed": false,
          "internalType": "uint256",
          "name": "amount",
          "type": "uint256"
        }
      ],
      "name": "Burned",
      "type": "event"
    },
    {
      "anonymous": false,
      "inputs": [
        {
          "indexed": false,
          "internalType": "address",
          "name": "oneToken",
          "type": "address"
        },
        {
          "indexed": false,
          "internalType": "uint256",
          "name": "tokenId",
          "type": "uint256"
        },
        {
          "indexed": false,
          "internalType": "address",
          "name": "recipient",
          "type": "address"
        },
        {
          "indexed": false,
          "internalType": "bytes32",
          "name": "receiptId",
          "type": "bytes32"
        },
        {
          "indexed": false,
          "internalType": "uint256",
          "name": "amount",
          "type": "uint256"
        }
      ],
      "name": "Minted",
      "type": "event"
    },
    {
      "constant": true,
      "inputs": [
        {
          "internalType": "address",
          "name": "",
          "type": "address"
        }
      ],
      "name": "mappings",
      "outputs": [
        {
          "internalType": "address",
          "name": "",
          "type": "address"
        }
      ],
      "payable": false,
      "stateMutability": "view",
      "type": "function"
    },
    {
      "constant": true,
      "inputs": [
        {
          "internalType": "bytes32",
          "name": "",
          "type": "bytes32"
        }
      ],
      "name": "usedEvents_",
      "outputs": [
        {
          "internalType": "bool",
          "name": "",
          "type": "bool"
        }
      ],
      "payable": false,
      "stateMutability": "view",
      "type": "function"
    },
    {
      "constant": true,
      "inputs": [],
      "name": "wallet",
      "outputs": [
        {
          "internalType": "address",
          "name": "",
          "type": "address"
        }
      ],
      "payable": false,
      "stateMutability": "view",
      "type": "function"
    },
    {
      "constant": false,
      "inputs": [
        {
          "internalType": "address",
          "name": "tokenManager",
          "type": "address"
        },
        {
          "internalType": "address",
          "name": "ethTokenAddr",
          "type": "address"
        },
        {
          "internalType": "string",
          "name": "name",
          "type": "string"
        },
        {
          "internalType": "string",
          "name": "symbol",
          "type": "string"
        },
        {
          "internalType": "string",
          "name": "baseURI",
          "type": "string"
        }
      ],
      "name": "addToken",
      "outputs": [],
      "payable": false,
      "stateMutability": "nonpayable",
      "type": "function"
    },
    {
      "constant": false,
      "inputs": [
        {
          "internalType": "address",
          "name": "tokenManager",
          "type": "address"
        },
        {
          "internalType": "address",
          "name": "ethTokenAddr",
          "type": "address"
        }
      ],
      "name": "removeToken",
      "outputs": [],
      "payable": false,
      "stateMutability": "nonpayable",
      "type": "function"
    },
    {
      "constant": false,
      "inputs": [
        {
          "internalType": "address",
          "name": "oneToken",
          "type": "address"
        },
        {
          "internalType": "uint256",
          "name": "tokenId",
          "type": "uint256"
        },
        {
          "internalType": "address",
          "name": "recipient",
          "type": "address"
        },
        {
          "internalType": "uint256",
          "name": "amount",
          "type": "uint256"
        }
      ],
      "name": "burnToken",
      "outputs": [],
      "payable": false,
      "stateMutability": "nonpayable",
      "type": "function"
    },
    {
      "constant": false,
      "inputs": [
        {
          "internalType": "address",
          "name": "oneToken",
          "type": "address"
        },
        {
          "internalType": "uint256[]",
          "name": "tokenIds",
          "type": "uint256[]"
        },
        {
          "internalType": "address",
          "name": "recipient",
          "type": "address"
        },
        {
          "internalType": "uint256[]",
          "name": "amounts",
          "type": "uint256[]"
        }
      ],
      "name": "burnTokens",
      "outputs": [],
      "payable": false,
      "stateMutability": "nonpayable",
      "type": "function"
    },
    {
      "constant": false,
      "inputs": [
        {
          "internalType": "address",
          "name": "oneToken",
          "type": "address"
        },
        {
          "internalType": "uint256",
          "name": "tokenId",
          "type": "uint256"
        },
        {
          "internalType": "address",
          "name": "recipient",
          "type": "address"
        },
        {
          "internalType": "bytes32",
          "name": "receiptId",
          "type": "bytes32"
        },
        {
          "internalType": "uint256",
          "name": "amount",
          "type": "uint256"
        },
        {
          "internalType": "bytes",
          "name": "data",
          "type": "bytes"
        }
      ],
      "name": "mintToken",
      "outputs": [],
      "payable": false,
      "stateMutability": "nonpayable",
      "type": "function"
    },
    {
      "constant": false,
      "inputs": [
        {
          "internalType": "address",
          "name": "oneToken",
          "type": "address"
        },
        {
          "internalType": "uint256[]",
          "name": "tokenIds",
          "type": "uint256[]"
        },
        {
          "internalType": "address",
          "name": "recipient",
          "type": "address"
        },
        {
          "internalType": "bytes32",
          "name": "receiptId",
          "type": "bytes32"
        },
        {
          "internalType": "uint256[]",
          "name": "amounts",
          "type": "uint256[]"
        },
        {
          "internalType": "bytes",
          "name": "data",
          "type": "bytes"
        }
      ],
      "name": "mintTokens",
      "outputs": [],
      "payable": false,
      "stateMutability": "nonpayable",
      "type": "function"
    }
  ],
  "bytecode": "0x608060405234801561001057600080fd5b5060405161146b38038061146b8339818101604052602081101561003357600080fd5b5051600280546001600160a01b0319166001600160a01b03909216919091179055611408806100636000396000f3fe608060405234801561001057600080fd5b50600436106100935760003560e01c80636feb0124116100665780636feb01241461037a57806378897a19146103b45780639735b0e3146104f8578063bccc9fcf14610526578063e70034671461055757610093565b806326cf17f61461009857806341102619146102615780634ba12cfb146102a3578063521eb27314610372575b600080fd5b61025f600480360360a08110156100ae57600080fd5b6001600160a01b038235811692602081013590911691810190606081016040820135600160201b8111156100e157600080fd5b8201836020820111156100f357600080fd5b803590602001918460018302840111600160201b8311171561011457600080fd5b91908080601f0160208091040260200160405190810160405280939291908181526020018383808284376000920191909152509295949360208101935035915050600160201b81111561016657600080fd5b82018360208201111561017857600080fd5b803590602001918460018302840111600160201b8311171561019957600080fd5b91908080601f0160208091040260200160405190810160405280939291908181526020018383808284376000920191909152509295949360208101935035915050600160201b8111156101eb57600080fd5b8201836020820111156101fd57600080fd5b803590602001918460018302840111600160201b8311171561021e57600080fd5b91908080601f016020809104026020016040519081016040528093929190818152602001838380828437600092019190915250929550610724945050505050565b005b6102876004803603602081101561027757600080fd5b50356001600160a01b0316610919565b604080516001600160a01b039092168252519081900360200190f35b61025f600480360360c08110156102b957600080fd5b6001600160a01b03823581169260208101359260408201359092169160608201359160808101359181019060c0810160a0820135600160201b8111156102fe57600080fd5b82018360208201111561031057600080fd5b803590602001918460018302840111600160201b8311171561033157600080fd5b91908080601f016020809104026020016040519081016040528093929190818152602001838380828437600092019190915250929550610934945050505050565b610287610b9e565b61025f6004803603608081101561039057600080fd5b506001600160a01b0381358116916020810135916040820135169060600135610bad565b61025f600480360360808110156103ca57600080fd5b6001600160a01b038235169190810190604081016020820135600160201b8111156103f457600080fd5b82018360208201111561040657600080fd5b803590602001918460208302840111600160201b8311171561042757600080fd5b91908080602002602001604051908101604052809392919081815260200183836020028082843760009201919091525092956001600160a01b03853516959094909350604081019250602001359050600160201b81111561048757600080fd5b82018360208201111561049957600080fd5b803590602001918460208302840111600160201b831117156104ba57600080fd5b919080806020026020016040519081016040528093929190818152602001838360200280828437600092019190915250929550610cce945050505050565b61025f6004803603604081101561050e57600080fd5b506001600160a01b0381358116916020013516610f45565b6105436004803603602081101561053c57600080fd5b5035610fd4565b604080519115158252519081900360200190f35b61025f600480360360c081101561056d57600080fd5b6001600160a01b038235169190810190604081016020820135600160201b81111561059757600080fd5b8201836020820111156105a957600080fd5b803590602001918460208302840111600160201b831117156105ca57600080fd5b91908080602002602001604051908101604052809392919081815260200183836020028082843760009201919091525092956001600160a01b0385351695602086013595919450925060608101915060400135600160201b81111561062e57600080fd5b82018360208201111561064057600080fd5b803590602001918460208302840111600160201b8311171561066157600080fd5b9190808060200260200160405190810160405280939291908181526020018383602002808284376000920191909152509295949360208101935035915050600160201b8111156106b057600080fd5b8201836020820111156106c257600080fd5b803590602001918460018302840111600160201b831117156106e357600080fd5b91908080601f016020809104026020016040519081016040528093929190818152602001838380828437600092019190915250929550610fe9945050505050565b6000856001600160a01b031663899c9563868686866040518563ffffffff1660e01b815260040180856001600160a01b03166001600160a01b03168152602001806020018060200180602001848103845287818151815260200191508051906020019080838360005b838110156107a557818101518382015260200161078d565b50505050905090810190601f1680156107d25780820380516001836020036101000a031916815260200191505b50848103835286518152865160209182019188019080838360005b838110156108055781810151838201526020016107ed565b50505050905090810190601f1680156108325780820380516001836020036101000a031916815260200191505b50848103825285518152855160209182019187019080838360005b8381101561086557818101518382015260200161084d565b50505050905090810190601f1680156108925780820380516001836020036101000a031916815260200191505b50975050505050505050602060405180830381600087803b1580156108b657600080fd5b505af11580156108ca573d6000803e3d6000fd5b505050506040513d60208110156108e057600080fd5b50516001600160a01b03958616600090815260016020526040902080546001600160a01b03191696909116959095179094555050505050565b6001602052600090815260409020546001600160a01b031681565b6002546001600160a01b0316331461098f576040805162461bcd60e51b8152602060048201526019602482015278121b5e53585b9859d95c8bdb9bdd0b585d5d1a1bdc9a5e9959603a1b604482015290519081900360640190fd5b60008381526020819052604090205460ff16156109dd5760405162461bcd60e51b815260040180806020018281038252602a8152602001806113aa602a913960400191505060405180910390fd5b856001600160a01b031663731133e9858785856040518563ffffffff1660e01b815260040180856001600160a01b03166001600160a01b0316815260200184815260200183815260200180602001828103825283818151815260200191508051906020019080838360005b83811015610a60578181015183820152602001610a48565b50505050905090810190601f168015610a8d5780820380516001836020036101000a031916815260200191505b5095505050505050600060405180830381600087803b158015610aaf57600080fd5b505af1158015610ac3573d6000803e3d6000fd5b50505050856001600160a01b0316637cf5dab0836040518263ffffffff1660e01b815260040180828152602001915050600060405180830381600087803b158015610b0d57600080fd5b505af1158015610b21573d6000803e3d6000fd5b5050604080516001600160a01b03808b168252602082018a9052881681830152606081018790526080810186905290517f91059bdcaee0f12a7188c64e4865218cfdf2947d7820af9b2f71f64a67e0100093509081900360a0019150a150506000908152602081905260409020805460ff19166001179055505050565b6002546001600160a01b031681565b60408051637a94c56560e11b8152336004820152602481018590526044810183905290516001600160a01b0386169163f5298aca91606480830192600092919082900301818387803b158015610c0257600080fd5b505af1158015610c16573d6000803e3d6000fd5b50505050836001600160a01b0316633a9ebefd826040518263ffffffff1660e01b815260040180828152602001915050600060405180830381600087803b158015610c6057600080fd5b505af1158015610c74573d6000803e3d6000fd5b5050604080518681526001600160a01b038681166020830152818301869052915133945091881692507fde4068a90132ea6fdeb58d7c55b9e3a4066817380a9c9dc978136c24aad457bd919081900360600190a350505050565b604051637b75893d60e11b815233600482018181526060602484019081528651606485015286516001600160a01b0389169463f6eb127a949389938893919290916044820191608401906020808801910280838360005b83811015610d3d578181015183820152602001610d25565b50505050905001838103825284818151815260200191508051906020019060200280838360005b83811015610d7c578181015183820152602001610d64565b5050505090500195505050505050600060405180830381600087803b158015610da457600080fd5b505af1158015610db8573d6000803e3d6000fd5b50506040516301918c6d60e61b81526020600482018181528551602484015285516001600160a01b038a1695506364631b40945086939192839260440191818601910280838360005b83811015610e19578181015183820152602001610e01565b5050505090500192505050600060405180830381600087803b158015610e3e57600080fd5b505af1158015610e52573d6000803e3d6000fd5b50505050336001600160a01b0316846001600160a01b03167f78fd6db63baecc2ed6c485219702b8bda912bb2f751e2fd8af7f5aa838131bc68585856040518080602001846001600160a01b03166001600160a01b0316815260200180602001838103835286818151815260200191508051906020019060200280838360005b83811015610eea578181015183820152602001610ed2565b50505050905001838103825284818151815260200191508051906020019060200280838360005b83811015610f29578181015183820152602001610f11565b505050509050019550505050505060405180910390a350505050565b604080516307a06a0960e21b81526001600160a01b038381166004830152600060248301819052925190851692631e81a824926044808201939182900301818387803b158015610f9457600080fd5b505af1158015610fa8573d6000803e3d6000fd5b505050506001600160a01b0316600090815260016020526040902080546001600160a01b031916905550565b60006020819052908152604090205460ff1681565b6002546001600160a01b03163314611044576040805162461bcd60e51b8152602060048201526019602482015278121b5e53585b9859d95c8bdb9bdd0b585d5d1a1bdc9a5e9959603a1b604482015290519081900360640190fd5b60008381526020819052604090205460ff16156110925760405162461bcd60e51b815260040180806020018281038252602a8152602001806113aa602a913960400191505060405180910390fd5b856001600160a01b031663b48ab8b6858785856040518563ffffffff1660e01b815260040180856001600160a01b03166001600160a01b03168152602001806020018060200180602001848103845287818151815260200191508051906020019060200280838360005b838110156111145781810151838201526020016110fc565b50505050905001848103835286818151815260200191508051906020019060200280838360005b8381101561115357818101518382015260200161113b565b50505050905001848103825285818151815260200191508051906020019080838360005b8381101561118f578181015183820152602001611177565b50505050905090810190601f1680156111bc5780820380516001836020036101000a031916815260200191505b50975050505050505050600060405180830381600087803b1580156111e057600080fd5b505af11580156111f4573d6000803e3d6000fd5b50506040516316084f1f60e01b81526020600482018181528651602484015286516001600160a01b038c1695506316084f1f945087939192839260440191818601910280838360005b8381101561125557818101518382015260200161123d565b5050505090500192505050600060405180830381600087803b15801561127a57600080fd5b505af115801561128e573d6000803e3d6000fd5b505050507f0587d70d84eb2772ef04cdd56e439f06eae8d438c6b74f4903a8d636151d83cc868686868660405180866001600160a01b03166001600160a01b0316815260200180602001856001600160a01b03166001600160a01b0316815260200184815260200180602001838103835287818151815260200191508051906020019060200280838360005b8381101561133257818101518382015260200161131a565b50505050905001838103825284818151815260200191508051906020019060200280838360005b83811015611371578181015183820152602001611359565b5050505090500197505050505050505060405180910390a150506000908152602081905260409020805460ff1916600117905550505056fe486d794d616e616765722f546865206c6f636b206576656e742063616e6e6f7420626520726575736564a265627a7a723158209f86c5b1ca372bd5a07feb09416a316079991d7fc9541281122ed5972bb6ea9a64736f6c63430005110032",
  "source": "pragma solidity 0.5.17;\n\nimport \"../erc1155/IERC1155.sol\";\nimport \"../lib/HRC1155TokenManager.sol\";\nimport \"../lib/Bridged1155Token.sol\";\n\ninterface MintableToken {\n    function mint(address _to, uint256 _id, uint256 _quantity, bytes calldata _data) external;\n\n    function batchMint(address _to, uint256[] calldata _ids, uint256[] calldata _quantities, bytes calldata _data) external;\n}\n\ninterface BurnableToken {\n    function burn(address _from, uint256 _id, uint256 _amount) external;\n\n    function batchBurn(address _from, uint256[] calldata _ids, uint256[] calldata _amounts) external;\n}\n\ncontract ERC1155HmyManager {\n    mapping(bytes32 => bool) public usedEvents_;\n    mapping(address => address) public mappings;\n\n    event Burned(\n        address indexed token,\n        address indexed sender,\n        uint256 tokenId,\n        address recipient,\n        uint256 amount\n    );\n\n    event BatchBurned(\n        address indexed token,\n        address indexed sender,\n        uint256[] tokenIds,\n        address recipient,\n        uint256[] amounts\n    );\n\n    event Minted(\n        address oneToken,\n        uint256 tokenId,\n        address recipient,\n        bytes32 receiptId,\n        uint256 amount\n    );\n\n    event BatchMinted(\n        address oneToken,\n        uint256[] tokenIds,\n        address recipient,\n        bytes32 receiptId,\n        uint256[] amounts\n    );\n\n    address public wallet;\n    modifier onlyWallet {\n        require(msg.sender == wallet, \"HmyManager/not-authorized\");\n        _;\n    }\n\n    /**\n     * @dev constructor\n     * @param _wallet is the multisig wallet\n     */\n    constructor(address _wallet) public {\n        wallet = _wallet;\n    }\n\n    /**\n     * @dev map an ethereum token to harmony\n     * @param tokenManager address to token manager\n     * @param ethTokenAddr ethereum token address to map\n     * @param name of the ethereum token\n     * @param symbol of the ethereum token\n     * @param baseURI base URI of the token\n     */\n    function addToken(\n        address tokenManager,\n        address ethTokenAddr,\n        string memory name,\n        string memory symbol,\n        string memory baseURI\n    ) public {\n        address oneTokenAddr = HRC1155TokenManager(tokenManager).addHRC1155Token(\n            ethTokenAddr,\n            name,\n            symbol,\n            baseURI\n        );\n        mappings[ethTokenAddr] = oneTokenAddr;\n    }\n\n    /**\n     * @dev deregister token mapping in the token manager\n     * @param tokenManager address to token manager\n     * @param ethTokenAddr address to remove token\n     */\n    function removeToken(address tokenManager, address ethTokenAddr) public {\n        HRC1155TokenManager(tokenManager).removeHRC1155Token(ethTokenAddr, 0);\n        delete mappings[ethTokenAddr];\n    }\n\n    /**\n     * @dev burns tokens on harmony to be unlocked on ethereum\n     * @param oneToken harmony token address\n     * @param tokenId tokenId to burn\n     * @param recipient recipient of the unlock tokens on ethereum\n     */\n    function burnToken(\n        address oneToken,\n        uint256 tokenId,\n        address recipient,\n        uint256 amount\n    ) public {\n        BurnableToken(oneToken).burn(msg.sender, tokenId, amount);\n        Bridged1155Token(oneToken).decrement(amount);\n        emit Burned(oneToken, msg.sender, tokenId, recipient, amount);\n    }\n\n    /**\n     * @dev burns tokens on harmony to be unlocked on ethereum\n     * @param oneToken harmony token address\n     * @param tokenIds tokenIds to burn\n     * @param recipient recipient of the unlock tokens on ethereum\n     */\n    function burnTokens(\n        address oneToken,\n        uint256[] memory tokenIds,\n        address recipient,\n        uint256[] memory amounts\n    ) public {\n        BurnableToken(oneToken).batchBurn(msg.sender, tokenIds, amounts);\n        Bridged1155Token(oneToken).batchDecrement(amounts);\n        emit BatchBurned(oneToken, msg.sender, tokenIds, recipient, amounts);\n    }\n\n    /**\n     * @dev mints tokens corresponding to the tokens locked in the ethereum chain\n     * @param oneToken is the token address for minting\n     * @param tokenId tokenId for minting\n     * @param recipient recipient of the minted tokens (harmony address)\n     * @param receiptId transaction hash of the lock event on ethereum chain\n     */\n    function mintToken(\n        address oneToken,\n        uint256 tokenId,\n        address recipient,\n        bytes32 receiptId,\n        uint256 amount,\n        bytes memory data\n    ) public onlyWallet {\n        require(\n            !usedEvents_[receiptId],\n            \"HmyManager/The lock event cannot be reused\"\n        );\n        MintableToken(oneToken).mint(recipient, tokenId, amount, data);\n        Bridged1155Token(oneToken).increment(amount);\n        emit Minted(oneToken, tokenId, recipient, receiptId, amount);\n\n        usedEvents_[receiptId] = true;\n    }\n\n    /**\n     * @dev mints tokens corresponding to the tokens locked in the ethereum chain\n     * @param oneToken is the token address for minting\n     * @param tokenIds tokenIds for minting\n     * @param recipient recipient of the minted tokens (harmony address)\n     * @param receiptId transaction hash of the lock event on ethereum chain\n     */\n    function mintTokens(\n        address oneToken,\n        uint256[] memory tokenIds,\n        address recipient,\n        bytes32 receiptId,\n        uint256[] memory amounts,\n        bytes memory data\n    ) public onlyWallet {\n        require(\n            !usedEvents_[receiptId],\n            \"HmyManager/The lock event cannot be reused\"\n        );\n\n        MintableToken(oneToken).batchMint(recipient, tokenIds, amounts, data);\n        Bridged1155Token(oneToken).batchIncrement(amounts);\n        emit BatchMinted(oneToken, tokenIds, recipient, receiptId, amounts);\n\n        usedEvents_[receiptId] = true;\n    }\n}\n",
  "sourcePath": "/home/lutty/workspace/Web/WebstormProjects/ethhmy-bridge/contracts/hrc1155/ERC1155HmyManager.sol",
  "compiler": {
    "name": "solc",
    "version": "0.5.17+commit.d19bba13.Emscripten.clang"
  },
  "schemaVersion": "3.4.3",
  "updatedAt": "2021-10-26T07:09:26.318Z",
  "devdoc": {
    "methods": {
      "addToken(address,address,string,string,string)": {
        "details": "map an ethereum token to harmony",
        "params": {
          "baseURI": "base URI of the token",
          "ethTokenAddr": "ethereum token address to map",
          "name": "of the ethereum token",
          "symbol": "of the ethereum token",
          "tokenManager": "address to token manager"
        }
      },
      "burnToken(address,uint256,address,uint256)": {
        "details": "burns tokens on harmony to be unlocked on ethereum",
        "params": {
          "oneToken": "harmony token address",
          "recipient": "recipient of the unlock tokens on ethereum",
          "tokenId": "tokenId to burn"
        }
      },
      "burnTokens(address,uint256[],address,uint256[])": {
        "details": "burns tokens on harmony to be unlocked on ethereum",
        "params": {
          "oneToken": "harmony token address",
          "recipient": "recipient of the unlock tokens on ethereum",
          "tokenIds": "tokenIds to burn"
        }
      },
      "constructor": {
        "details": "constructor",
        "params": {
          "_wallet": "is the multisig wallet"
        }
      },
      "mintToken(address,uint256,address,bytes32,uint256,bytes)": {
        "details": "mints tokens corresponding to the tokens locked in the ethereum chain",
        "params": {
          "oneToken": "is the token address for minting",
          "receiptId": "transaction hash of the lock event on ethereum chain",
          "recipient": "recipient of the minted tokens (harmony address)",
          "tokenId": "tokenId for minting"
        }
      },
      "mintTokens(address,uint256[],address,bytes32,uint256[],bytes)": {
        "details": "mints tokens corresponding to the tokens locked in the ethereum chain",
        "params": {
          "oneToken": "is the token address for minting",
          "receiptId": "transaction hash of the lock event on ethereum chain",
          "recipient": "recipient of the minted tokens (harmony address)",
          "tokenIds": "tokenIds for minting"
        }
      },
      "removeToken(address,address)": {
        "details": "deregister token mapping in the token manager",
        "params": {
          "ethTokenAddr": "address to remove token",
          "tokenManager": "address to token manager"
        }
      }
    }
  },
  "userdoc": {
    "methods": {}
  }
}