{
  "contractName": "ERC1155EthManager",
  "abi": [
    {
      "inputs": [
        {
          "internalType": "address",
          "name": "_wallet",
          "type": "address"
        }
      ],
      "payable": false,
      "stateMutability": "nonpayable",
      "type": "constructor"
    },
    {
      "anonymous": false,
      "inputs": [
        {
          "indexed": true,
          "internalType": "address",
          "name": "token",
          "type": "address"
        },
        {
          "indexed": true,
          "internalType": "address",
          "name": "sender",
          "type": "address"
        },
        {
          "indexed": false,
          "internalType": "uint256[]",
          "name": "tokenIds",
          "type": "uint256[]"
        },
        {
          "indexed": false,
          "internalType": "address",
          "name": "recipient",
          "type": "address"
        },
        {
          "indexed": false,
          "internalType": "uint256[]",
          "name": "amounts",
          "type": "uint256[]"
        }
      ],
      "name": "BatchLocked",
      "type": "event"
    },
    {
      "anonymous": false,
      "inputs": [
        {
          "indexed": false,
          "internalType": "address",
          "name": "ethToken",
          "type": "address"
        },
        {
          "indexed": false,
          "internalType": "uint256[]",
          "name": "tokenIds",
          "type": "uint256[]"
        },
        {
          "indexed": false,
          "internalType": "address",
          "name": "recipient",
          "type": "address"
        },
        {
          "indexed": false,
          "internalType": "bytes32",
          "name": "receiptId",
          "type": "bytes32"
        },
        {
          "indexed": false,
          "internalType": "uint256[]",
          "name": "amounts",
          "type": "uint256[]"
        }
      ],
      "name": "BatchUnlocked",
      "type": "event"
    },
    {
      "anonymous": false,
      "inputs": [
        {
          "indexed": true,
          "internalType": "address",
          "name": "token",
          "type": "address"
        },
        {
          "indexed": true,
          "internalType": "address",
          "name": "sender",
          "type": "address"
        },
        {
          "indexed": false,
          "internalType": "uint256",
          "name": "tokenId",
          "type": "uint256"
        },
        {
          "indexed": false,
          "internalType": "address",
          "name": "recipient",
          "type": "address"
        },
        {
          "indexed": false,
          "internalType": "uint256",
          "name": "amount",
          "type": "uint256"
        }
      ],
      "name": "Locked",
      "type": "event"
    },
    {
      "anonymous": false,
      "inputs": [
        {
          "indexed": false,
          "internalType": "address",
          "name": "ethToken",
          "type": "address"
        },
        {
          "indexed": false,
          "internalType": "uint256",
          "name": "tokenId",
          "type": "uint256"
        },
        {
          "indexed": false,
          "internalType": "address",
          "name": "recipient",
          "type": "address"
        },
        {
          "indexed": false,
          "internalType": "bytes32",
          "name": "receiptId",
          "type": "bytes32"
        },
        {
          "indexed": false,
          "internalType": "uint256",
          "name": "amount",
          "type": "uint256"
        }
      ],
      "name": "Unlocked",
      "type": "event"
    },
    {
      "constant": false,
      "inputs": [
        {
          "internalType": "address",
          "name": "",
          "type": "address"
        },
        {
          "internalType": "address",
          "name": "",
          "type": "address"
        },
        {
          "internalType": "uint256[]",
          "name": "",
          "type": "uint256[]"
        },
        {
          "internalType": "uint256[]",
          "name": "",
          "type": "uint256[]"
        },
        {
          "internalType": "bytes",
          "name": "",
          "type": "bytes"
        }
      ],
      "name": "onERC1155BatchReceived",
      "outputs": [
        {
          "internalType": "bytes4",
          "name": "",
          "type": "bytes4"
        }
      ],
      "payable": false,
      "stateMutability": "nonpayable",
      "type": "function"
    },
    {
      "constant": false,
      "inputs": [
        {
          "internalType": "address",
          "name": "",
          "type": "address"
        },
        {
          "internalType": "address",
          "name": "",
          "type": "address"
        },
        {
          "internalType": "uint256",
          "name": "",
          "type": "uint256"
        },
        {
          "internalType": "uint256",
          "name": "",
          "type": "uint256"
        },
        {
          "internalType": "bytes",
          "name": "",
          "type": "bytes"
        }
      ],
      "name": "onERC1155Received",
      "outputs": [
        {
          "internalType": "bytes4",
          "name": "",
          "type": "bytes4"
        }
      ],
      "payable": false,
      "stateMutability": "nonpayable",
      "type": "function"
    },
    {
      "constant": true,
      "inputs": [
        {
          "internalType": "bytes4",
          "name": "interfaceID",
          "type": "bytes4"
        }
      ],
      "name": "supportsInterface",
      "outputs": [
        {
          "internalType": "bool",
          "name": "",
          "type": "bool"
        }
      ],
      "payable": false,
      "stateMutability": "view",
      "type": "function"
    },
    {
      "constant": true,
      "inputs": [
        {
          "internalType": "bytes32",
          "name": "",
          "type": "bytes32"
        }
      ],
      "name": "usedEvents_",
      "outputs": [
        {
          "internalType": "bool",
          "name": "",
          "type": "bool"
        }
      ],
      "payable": false,
      "stateMutability": "view",
      "type": "function"
    },
    {
      "constant": true,
      "inputs": [],
      "name": "wallet",
      "outputs": [
        {
          "internalType": "address",
          "name": "",
          "type": "address"
        }
      ],
      "payable": false,
      "stateMutability": "view",
      "type": "function"
    },
    {
      "constant": false,
      "inputs": [
        {
          "internalType": "address",
          "name": "ethTokenAddr",
          "type": "address"
        },
        {
          "internalType": "uint256",
          "name": "tokenId",
          "type": "uint256"
        },
        {
          "internalType": "address",
          "name": "recipient",
          "type": "address"
        },
        {
          "internalType": "uint256",
          "name": "amount",
          "type": "uint256"
        },
        {
          "internalType": "bytes",
          "name": "data",
          "type": "bytes"
        }
      ],
      "name": "lockHRC1155Token",
      "outputs": [],
      "payable": false,
      "stateMutability": "nonpayable",
      "type": "function"
    },
    {
      "constant": false,
      "inputs": [
        {
          "internalType": "address",
          "name": "ethTokenAddr",
          "type": "address"
        },
        {
          "internalType": "uint256[]",
          "name": "tokenIds",
          "type": "uint256[]"
        },
        {
          "internalType": "address",
          "name": "recipient",
          "type": "address"
        },
        {
          "internalType": "uint256[]",
          "name": "amounts",
          "type": "uint256[]"
        },
        {
          "internalType": "bytes",
          "name": "data",
          "type": "bytes"
        }
      ],
      "name": "lockHRC1155Tokens",
      "outputs": [],
      "payable": false,
      "stateMutability": "nonpayable",
      "type": "function"
    },
    {
      "constant": false,
      "inputs": [
        {
          "internalType": "address",
          "name": "ethTokenAddr",
          "type": "address"
        },
        {
          "internalType": "uint256",
          "name": "tokenId",
          "type": "uint256"
        },
        {
          "internalType": "address",
          "name": "recipient",
          "type": "address"
        },
        {
          "internalType": "bytes32",
          "name": "receiptId",
          "type": "bytes32"
        },
        {
          "internalType": "uint256",
          "name": "amount",
          "type": "uint256"
        },
        {
          "internalType": "bytes",
          "name": "data",
          "type": "bytes"
        }
      ],
      "name": "unlockHRC1155Token",
      "outputs": [],
      "payable": false,
      "stateMutability": "nonpayable",
      "type": "function"
    },
    {
      "constant": false,
      "inputs": [
        {
          "internalType": "address",
          "name": "ethTokenAddr",
          "type": "address"
        },
        {
          "internalType": "uint256[]",
          "name": "tokenIds",
          "type": "uint256[]"
        },
        {
          "internalType": "address",
          "name": "recipient",
          "type": "address"
        },
        {
          "internalType": "bytes32",
          "name": "receiptId",
          "type": "bytes32"
        },
        {
          "internalType": "uint256[]",
          "name": "amounts",
          "type": "uint256[]"
        },
        {
          "internalType": "bytes",
          "name": "data",
          "type": "bytes"
        }
      ],
      "name": "unlockHRC1155Tokens",
      "outputs": [],
      "payable": false,
      "stateMutability": "nonpayable",
      "type": "function"
    }
  ],
  "bytecode": "0x608060405234801561001057600080fd5b506040516113b33803806113b38339818101604052602081101561003357600080fd5b5051600180546001600160a01b0319166001600160a01b03909216919091179055611350806100636000396000f3fe608060405234801561001057600080fd5b50600436106100935760003560e01c8063a943fdd611610066578063a943fdd61461038c578063bc197c8114610559578063bccc9fcf14610737578063f23a6e6114610754578063fd07852b1461081d57610093565b806301ffc9a714610098578063521eb273146100d35780636adcd816146100f7578063782f9142146102c2575b600080fd5b6100bf600480360360208110156100ae57600080fd5b50356001600160e01b0319166108ec565b604080519115158252519081900360200190f35b6100db610923565b604080516001600160a01b039092168252519081900360200190f35b6102c0600480360360a081101561010d57600080fd5b6001600160a01b038235169190810190604081016020820135600160201b81111561013757600080fd5b82018360208201111561014957600080fd5b803590602001918460208302840111600160201b8311171561016a57600080fd5b91908080602002602001604051908101604052809392919081815260200183836020028082843760009201919091525092956001600160a01b03853516959094909350604081019250602001359050600160201b8111156101ca57600080fd5b8201836020820111156101dc57600080fd5b803590602001918460208302840111600160201b831117156101fd57600080fd5b9190808060200260200160405190810160405280939291908181526020018383602002808284376000920191909152509295949360208101935035915050600160201b81111561024c57600080fd5b82018360208201111561025e57600080fd5b803590602001918460018302840111600160201b8311171561027f57600080fd5b91908080601f016020809104026020016040519081016040528093929190818152602001838380828437600092019190915250929550610932945050505050565b005b6102c0600480360360a08110156102d857600080fd5b6001600160a01b0382358116926020810135926040820135909216916060820135919081019060a081016080820135600160201b81111561031857600080fd5b82018360208201111561032a57600080fd5b803590602001918460018302840111600160201b8311171561034b57600080fd5b91908080601f016020809104026020016040519081016040528093929190818152602001838380828437600092019190915250929550610bcf945050505050565b6102c0600480360360c08110156103a257600080fd5b6001600160a01b038235169190810190604081016020820135600160201b8111156103cc57600080fd5b8201836020820111156103de57600080fd5b803590602001918460208302840111600160201b831117156103ff57600080fd5b91908080602002602001604051908101604052809392919081815260200183836020028082843760009201919091525092956001600160a01b0385351695602086013595919450925060608101915060400135600160201b81111561046357600080fd5b82018360208201111561047557600080fd5b803590602001918460208302840111600160201b8311171561049657600080fd5b9190808060200260200160405190810160405280939291908181526020018383602002808284376000920191909152509295949360208101935035915050600160201b8111156104e557600080fd5b8201836020820111156104f757600080fd5b803590602001918460018302840111600160201b8311171561051857600080fd5b91908080601f016020809104026020016040519081016040528093929190818152602001838380828437600092019190915250929550610d13945050505050565b61071a600480360360a081101561056f57600080fd5b6001600160a01b038235811692602081013590911691810190606081016040820135600160201b8111156105a257600080fd5b8201836020820111156105b457600080fd5b803590602001918460208302840111600160201b831117156105d557600080fd5b9190808060200260200160405190810160405280939291908181526020018383602002808284376000920191909152509295949360208101935035915050600160201b81111561062457600080fd5b82018360208201111561063657600080fd5b803590602001918460208302840111600160201b8311171561065757600080fd5b9190808060200260200160405190810160405280939291908181526020018383602002808284376000920191909152509295949360208101935035915050600160201b8111156106a657600080fd5b8201836020820111156106b857600080fd5b803590602001918460018302840111600160201b831117156106d957600080fd5b91908080601f01602080910402602001604051908101604052809392919081815260200183838082843760009201919091525092955061105d945050505050565b604080516001600160e01b03199092168252519081900360200190f35b6100bf6004803603602081101561074d57600080fd5b503561106e565b61071a600480360360a081101561076a57600080fd5b6001600160a01b03823581169260208101359091169160408201359160608101359181019060a081016080820135600160201b8111156107a957600080fd5b8201836020820111156107bb57600080fd5b803590602001918460018302840111600160201b831117156107dc57600080fd5b91908080601f016020809104026020016040519081016040528093929190818152602001838380828437600092019190915250929550611083945050505050565b6102c0600480360360c081101561083357600080fd5b6001600160a01b03823581169260208101359260408201359092169160608201359160808101359181019060c0810160a0820135600160201b81111561087857600080fd5b82018360208201111561088a57600080fd5b803590602001918460018302840111600160201b831117156108ab57600080fd5b91908080601f016020809104026020016040519081016040528093929190818152602001838380828437600092019190915250929550611094945050505050565b60006301ffc9a760e01b6001600160e01b03198316148061091d5750630271189760e51b6001600160e01b03198316145b92915050565b6001546001600160a01b031681565b6001600160a01b0383166109775760405162461bcd60e51b81526004018080602001828103825260298152602001806112f36029913960400191505060405180910390fd5b604051631759616b60e11b81523360048201818152306024840181905260a060448501908152885160a486015288518a956001600160a01b03871695632eb2c2d6959094938c938b938b9392916064820191608481019160c4909101906020808a01910280838360005b838110156109f95781810151838201526020016109e1565b50505050905001848103835286818151815260200191508051906020019060200280838360005b83811015610a38578181015183820152602001610a20565b50505050905001848103825285818151815260200191508051906020019080838360005b83811015610a74578181015183820152602001610a5c565b50505050905090810190601f168015610aa15780820380516001836020036101000a031916815260200191505b5098505050505050505050600060405180830381600087803b158015610ac657600080fd5b505af1158015610ada573d6000803e3d6000fd5b50505050336001600160a01b0316866001600160a01b03167f7b54d70463e50ff822ffcf15c20b7cd145cbf966d5e6d9339cc00097da68b8f48787876040518080602001846001600160a01b03166001600160a01b0316815260200180602001838103835286818151815260200191508051906020019060200280838360005b83811015610b72578181015183820152602001610b5a565b50505050905001838103825284818151815260200191508051906020019060200280838360005b83811015610bb1578181015183820152602001610b99565b505050509050019550505050505060405180910390a3505050505050565b604051637921219560e11b815233600482018181523060248401819052604484018890526064840186905260a060848501908152855160a486015285518a956001600160a01b0387169563f242432a959094938c938b938b93929160c490910190602085019080838360005b83811015610c53578181015183820152602001610c3b565b50505050905090810190601f168015610c805780820380516001836020036101000a031916815260200191505b509650505050505050600060405180830381600087803b158015610ca357600080fd5b505af1158015610cb7573d6000803e3d6000fd5b5050604080518881526001600160a01b038881166020830152818301889052915133945091851692507f083bfe8d91379be2d16988e7dde395c8cc7670c25a776aac379a0a169dfc4680919081900360600190a3505050505050565b6001546001600160a01b03163314610d72576040805162461bcd60e51b815260206004820152601c60248201527f4e4654486d794d616e616765722f6e6f742d617574686f72697a656400000000604482015290519081900360640190fd5b60008381526020819052604090205460ff1615610dc05760405162461bcd60e51b815260040180806020018281038252602d8152602001806112c6602d913960400191505060405180910390fd5b6000869050806001600160a01b0316632eb2c2d630878987876040518663ffffffff1660e01b815260040180866001600160a01b03166001600160a01b03168152602001856001600160a01b03166001600160a01b03168152602001806020018060200180602001848103845287818151815260200191508051906020019060200280838360005b83811015610e60578181015183820152602001610e48565b50505050905001848103835286818151815260200191508051906020019060200280838360005b83811015610e9f578181015183820152602001610e87565b50505050905001848103825285818151815260200191508051906020019080838360005b83811015610edb578181015183820152602001610ec3565b50505050905090810190601f168015610f085780820380516001836020036101000a031916815260200191505b5098505050505050505050600060405180830381600087803b158015610f2d57600080fd5b505af1158015610f41573d6000803e3d6000fd5b505050507f7354997e924786a71ab06ce1f3b7fcd244a441e5670be3d0f9c61c5a9b6e6e68878787878760405180866001600160a01b03166001600160a01b0316815260200180602001856001600160a01b03166001600160a01b0316815260200184815260200180602001838103835287818151815260200191508051906020019060200280838360005b83811015610fe5578181015183820152602001610fcd565b50505050905001838103825284818151815260200191508051906020019060200280838360005b8381101561102457818101518382015260200161100c565b5050505090500197505050505050505060405180910390a15050506000908152602081905260409020805460ff19166001179055505050565b63bc197c8160e01b95945050505050565b60006020819052908152604090205460ff1681565b63f23a6e6160e01b95945050505050565b6001546001600160a01b031633146110f3576040805162461bcd60e51b815260206004820152601c60248201527f4e4654486d794d616e616765722f6e6f742d617574686f72697a656400000000604482015290519081900360640190fd5b60008381526020819052604090205460ff16156111415760405162461bcd60e51b815260040180806020018281038252602d8152602001806112c6602d913960400191505060405180910390fd5b6000869050806001600160a01b031663f242432a30878987876040518663ffffffff1660e01b815260040180866001600160a01b03166001600160a01b03168152602001856001600160a01b03166001600160a01b0316815260200184815260200183815260200180602001828103825283818151815260200191508051906020019080838360005b838110156111e25781810151838201526020016111ca565b50505050905090810190601f16801561120f5780820380516001836020036101000a031916815260200191505b509650505050505050600060405180830381600087803b15801561123257600080fd5b505af1158015611246573d6000803e3d6000fd5b50505060008581526020818152604091829020805460ff1916600117905581516001600160a01b03808c1682529181018a905290881681830152606081018790526080810186905290517f6736df7ee424a29c63a3431706b781720ecf754e9f884dd20d6e12b7eff990b792509081900360a00190a15050505050505056fe4e4654486d794d616e616765722f546865206275726e206576656e742063616e6e6f74206265207265757365644e4654486d794d616e616765722f726563697069656e742069732061207a65726f2061646472657373a265627a7a7231582047100b343a011d16f7ac6da08ae82e1f8c2d4659a65b7304a88524e80c7daae664736f6c63430005110032",
  "source": "pragma solidity 0.5.17;\n\nimport \"@openzeppelin/contracts/math/SafeMath.sol\";\nimport \"../erc1155/ERC1155Holder.sol\";\nimport \"../erc1155/IERC1155.sol\";\n\ncontract ERC1155EthManager is ERC1155Holder {\n    using SafeMath for uint256;\n\n    mapping(bytes32 => bool) public usedEvents_;\n\n    event Locked(\n        address indexed token,\n        address indexed sender,\n        uint256 tokenId,\n        address recipient,\n        uint256 amount\n    );\n\n    event BatchLocked(\n        address indexed token,\n        address indexed sender,\n        uint256[] tokenIds,\n        address recipient,\n        uint256[] amounts\n    );\n\n    event Unlocked(\n        address ethToken,\n        uint256 tokenId,\n        address recipient,\n        bytes32 receiptId,\n        uint256 amount\n    );\n\n    event BatchUnlocked(\n        address ethToken,\n        uint256[] tokenIds,\n        address recipient,\n        bytes32 receiptId,\n        uint256[] amounts\n    );\n\n    address public wallet;\n    modifier onlyWallet {\n        require(msg.sender == wallet, \"NFTHmyManager/not-authorized\");\n        _;\n    }\n\n    /**\n     * @dev constructor\n     * @param _wallet is the multisig wallet\n     */\n    constructor(address _wallet) public {\n        wallet = _wallet;\n    }\n\n    /**\n     * @dev lock tokens to be minted on harmony chain\n     * @param ethTokenAddr is the ethereum token contract address\n     * @param tokenId tokenId of the token to lock\n     * @param recipient recipient address on the harmony chain\n     * @param amount amount of the token\n     * @param data additional data with no specified format, sent in call to `_to`\n     */\n    function lockHRC1155Token(\n        address ethTokenAddr,\n        uint256 tokenId,\n        address recipient,\n        uint256 amount,\n        bytes memory data\n    ) public {\n        IERC1155 ethToken = IERC1155(ethTokenAddr);\n        ethToken.safeTransferFrom(msg.sender, address(this), tokenId, amount, data);\n        emit Locked(address(ethToken), msg.sender, tokenId, recipient, amount);\n    }\n\n    /**\n     * @dev lock tokens to be minted on harmony chain\n     * @param ethTokenAddr is the ethereum token contract address\n     * @param tokenIds tokenIds of the token to lock\n     * @param recipient recipient address on the harmony chain\n     * @param amounts amounts of the token\n     * @param data additional data with no specified format, sent in call to `_to`\n     */\n    function lockHRC1155Tokens(\n        address ethTokenAddr,\n        uint256[] memory tokenIds,\n        address recipient,\n        uint256[] memory amounts,\n        bytes memory data\n    ) public {\n        require(\n            recipient != address(0),\n            \"NFTHmyManager/recipient is a zero address\"\n        );\n        IERC1155 ethToken = IERC1155(ethTokenAddr);\n\n        ethToken.safeBatchTransferFrom(msg.sender, address(this), tokenIds, amounts, data);\n        emit BatchLocked(ethTokenAddr, msg.sender, tokenIds, recipient, amounts);\n    }\n\n    /**\n     * @dev unlock tokens after burning them on harmony chain\n     * @param ethTokenAddr is the ethereum token contract address\n     * @param tokenId tokenId of the token to lock\n     * @param recipient recipient address on the harmony chain\n     * @param amount amount of the token\n     * @param data additional data with no specified format, sent in call to `_to`\n     */\n    function unlockHRC1155Token(\n        address ethTokenAddr,\n        uint256 tokenId,\n        address recipient,\n        bytes32 receiptId,\n        uint256 amount,\n        bytes memory data\n    ) public onlyWallet {\n        require(\n            !usedEvents_[receiptId],\n            \"NFTHmyManager/The burn event cannot be reused\"\n        );\n        IERC1155 ethToken = IERC1155(ethTokenAddr);\n        ethToken.safeTransferFrom(address(this), recipient, tokenId, amount, data);\n        usedEvents_[receiptId] = true;\n        emit Unlocked(ethTokenAddr, tokenId, recipient, receiptId, amount);\n    }\n\n    /**\n     * @dev unlock tokens after burning them on harmony chain\n     * @param ethTokenAddr is the ethereum token contract address\n     * @param tokenIds tokenIds of the token to unlock\n     * @param recipient recipient of the unlock tokens\n     * @param receiptId transaction hash of the burn event on harmony chain\n     * @param amounts amount of the token\n     * @param data additional data with no specified format, sent in call to `_to`\n     */\n    function unlockHRC1155Tokens(\n        address ethTokenAddr,\n        uint256[] memory tokenIds,\n        address recipient,\n        bytes32 receiptId,\n        uint256[] memory amounts,\n        bytes memory data\n    ) public onlyWallet {\n        require(\n            !usedEvents_[receiptId],\n            \"NFTHmyManager/The burn event cannot be reused\"\n        );\n        IERC1155 ethToken = IERC1155(ethTokenAddr);\n        ethToken.safeBatchTransferFrom(address(this), recipient, tokenIds, amounts, data);\n        emit BatchUnlocked(ethTokenAddr, tokenIds, recipient, receiptId, amounts);\n        usedEvents_[receiptId] = true;\n    }\n}\n",
  "sourcePath": "/home/lutty/workspace/Web/WebstormProjects/ethhmy-bridge/contracts/hrc1155/ERC1155EthManager.sol",
  "compiler": {
    "name": "solc",
    "version": "0.5.17+commit.d19bba13.Emscripten.clang"
  },
  "schemaVersion": "3.4.3",
  "updatedAt": "2021-10-26T07:09:26.313Z",
  "devdoc": {
    "methods": {
      "constructor": {
        "details": "constructor",
        "params": {
          "_wallet": "is the multisig wallet"
        }
      },
      "lockHRC1155Token(address,uint256,address,uint256,bytes)": {
        "details": "lock tokens to be minted on harmony chain",
        "params": {
          "amount": "amount of the token",
          "data": "additional data with no specified format, sent in call to `_to`",
          "ethTokenAddr": "is the ethereum token contract address",
          "recipient": "recipient address on the harmony chain",
          "tokenId": "tokenId of the token to lock"
        }
      },
      "lockHRC1155Tokens(address,uint256[],address,uint256[],bytes)": {
        "details": "lock tokens to be minted on harmony chain",
        "params": {
          "amounts": "amounts of the token",
          "data": "additional data with no specified format, sent in call to `_to`",
          "ethTokenAddr": "is the ethereum token contract address",
          "recipient": "recipient address on the harmony chain",
          "tokenIds": "tokenIds of the token to lock"
        }
      },
      "unlockHRC1155Token(address,uint256,address,bytes32,uint256,bytes)": {
        "details": "unlock tokens after burning them on harmony chain",
        "params": {
          "amount": "amount of the token",
          "data": "additional data with no specified format, sent in call to `_to`",
          "ethTokenAddr": "is the ethereum token contract address",
          "recipient": "recipient address on the harmony chain",
          "tokenId": "tokenId of the token to lock"
        }
      },
      "unlockHRC1155Tokens(address,uint256[],address,bytes32,uint256[],bytes)": {
        "details": "unlock tokens after burning them on harmony chain",
        "params": {
          "amounts": "amount of the token",
          "data": "additional data with no specified format, sent in call to `_to`",
          "ethTokenAddr": "is the ethereum token contract address",
          "receiptId": "transaction hash of the burn event on harmony chain",
          "recipient": "recipient of the unlock tokens",
          "tokenIds": "tokenIds of the token to unlock"
        }
      }
    }
  },
  "userdoc": {
    "methods": {}
  }
}