{
  "contractName": "EthManager",
  "abi": [
    {
      "inputs": [
        {
          "internalType": "address",
          "name": "_wallet",
          "type": "address"
        }
      ],
      "payable": false,
      "stateMutability": "nonpayable",
      "type": "constructor"
    },
    {
      "anonymous": false,
      "inputs": [
        {
          "indexed": true,
          "internalType": "address",
          "name": "token",
          "type": "address"
        },
        {
          "indexed": true,
          "internalType": "address",
          "name": "sender",
          "type": "address"
        },
        {
          "indexed": false,
          "internalType": "uint256",
          "name": "amount",
          "type": "uint256"
        },
        {
          "indexed": false,
          "internalType": "address",
          "name": "recipient",
          "type": "address"
        }
      ],
      "name": "Locked",
      "type": "event"
    },
    {
      "anonymous": false,
      "inputs": [
        {
          "indexed": false,
          "internalType": "address",
          "name": "ethToken",
          "type": "address"
        },
        {
          "indexed": false,
          "internalType": "uint256",
          "name": "amount",
          "type": "uint256"
        },
        {
          "indexed": false,
          "internalType": "address",
          "name": "recipient",
          "type": "address"
        },
        {
          "indexed": false,
          "internalType": "bytes32",
          "name": "receiptId",
          "type": "bytes32"
        }
      ],
      "name": "Unlocked",
      "type": "event"
    },
    {
      "constant": true,
      "inputs": [
        {
          "internalType": "bytes32",
          "name": "",
          "type": "bytes32"
        }
      ],
      "name": "usedEvents_",
      "outputs": [
        {
          "internalType": "bool",
          "name": "",
          "type": "bool"
        }
      ],
      "payable": false,
      "stateMutability": "view",
      "type": "function"
    },
    {
      "constant": true,
      "inputs": [],
      "name": "wallet",
      "outputs": [
        {
          "internalType": "address",
          "name": "",
          "type": "address"
        }
      ],
      "payable": false,
      "stateMutability": "view",
      "type": "function"
    },
    {
      "constant": false,
      "inputs": [
        {
          "internalType": "address",
          "name": "ethTokenAddr",
          "type": "address"
        },
        {
          "internalType": "uint256",
          "name": "amount",
          "type": "uint256"
        },
        {
          "internalType": "address",
          "name": "recipient",
          "type": "address"
        }
      ],
      "name": "lockToken",
      "outputs": [],
      "payable": false,
      "stateMutability": "nonpayable",
      "type": "function"
    },
    {
      "constant": false,
      "inputs": [
        {
          "internalType": "address",
          "name": "ethTokenAddr",
          "type": "address"
        },
        {
          "internalType": "address",
          "name": "userAddr",
          "type": "address"
        },
        {
          "internalType": "uint256",
          "name": "amount",
          "type": "uint256"
        },
        {
          "internalType": "address",
          "name": "recipient",
          "type": "address"
        }
      ],
      "name": "lockTokenFor",
      "outputs": [],
      "payable": false,
      "stateMutability": "nonpayable",
      "type": "function"
    },
    {
      "constant": false,
      "inputs": [
        {
          "internalType": "address",
          "name": "ethTokenAddr",
          "type": "address"
        },
        {
          "internalType": "uint256",
          "name": "amount",
          "type": "uint256"
        },
        {
          "internalType": "address",
          "name": "recipient",
          "type": "address"
        },
        {
          "internalType": "bytes32",
          "name": "receiptId",
          "type": "bytes32"
        }
      ],
      "name": "unlockToken",
      "outputs": [],
      "payable": false,
      "stateMutability": "nonpayable",
      "type": "function"
    }
  ],
  "bytecode": "0x608060405234801561001057600080fd5b50604051610be9380380610be98339818101604052602081101561003357600080fd5b5051600180546001600160a01b0319166001600160a01b03909216919091179055610b86806100636000396000f3fe608060405234801561001057600080fd5b50600436106100575760003560e01c80630296be631461005c57806309eb27281461009a578063521eb273146100d0578063bccc9fcf146100f4578063fe7f61ea14610125575b600080fd5b6100986004803603608081101561007257600080fd5b506001600160a01b0381358116916020810135821691604082013591606001351661015f565b005b610098600480360360608110156100b057600080fd5b506001600160a01b038135811691602081013591604090910135166103e8565b6100d86105f3565b604080516001600160a01b039092168252519081900360200190f35b6101116004803603602081101561010a57600080fd5b5035610602565b604080519115158252519081900360200190f35b6100986004803603608081101561013b57600080fd5b506001600160a01b0381358116916020810135916040820135169060600135610617565b6001546001600160a01b031633146101ba576040805162461bcd60e51b8152602060048201526019602482015278121b5e53585b9859d95c8bdb9bdd0b585d5d1a1bdc9a5e9959603a1b604482015290519081900360640190fd5b6001600160a01b0381166101ff5760405162461bcd60e51b8152600401808060200182810382526026815260200180610b026026913960400191505060405180910390fd5b60008211610254576040805162461bcd60e51b815260206004820152601c60248201527f4574684d616e616765722f7a65726f20746f6b656e206c6f636b656400000000604482015290519081900360640190fd5b60008490506000816001600160a01b03166370a08231866040518263ffffffff1660e01b815260040180826001600160a01b03166001600160a01b0316815260200191505060206040518083038186803b1580156102b157600080fd5b505afa1580156102c5573d6000803e3d6000fd5b505050506040513d60208110156102db57600080fd5b505190506102fa6001600160a01b03831686308763ffffffff61074c16565b6000826001600160a01b03166370a08231876040518263ffffffff1660e01b815260040180826001600160a01b03166001600160a01b0316815260200191505060206040518083038186803b15801561035257600080fd5b505afa158015610366573d6000803e3d6000fd5b505050506040513d602081101561037c57600080fd5b505190506000610392838363ffffffff6107ac16565b604080518281526001600160a01b0388811660208301528251939450808b1693908816927f4c6ab40ee4cfa212a441d32ee2897945b4a52461284f9369e23fdf8faa6cdd69928290030190a35050505050505050565b6001600160a01b03811661042d5760405162461bcd60e51b8152600401808060200182810382526026815260200180610b026026913960400191505060405180910390fd5b60008211610482576040805162461bcd60e51b815260206004820152601c60248201527f4574684d616e616765722f7a65726f20746f6b656e206c6f636b656400000000604482015290519081900360640190fd5b604080516370a0823160e01b8152336004820152905184916000916001600160a01b038416916370a08231916024808301926020929190829003018186803b1580156104cd57600080fd5b505afa1580156104e1573d6000803e3d6000fd5b505050506040513d60208110156104f757600080fd5b505190506105166001600160a01b03831633308763ffffffff61074c16565b604080516370a0823160e01b815233600482015290516000916001600160a01b038516916370a0823191602480820192602092909190829003018186803b15801561056057600080fd5b505afa158015610574573d6000803e3d6000fd5b505050506040513d602081101561058a57600080fd5b5051905060006105a0838363ffffffff6107ac16565b604080518281526001600160a01b03888116602083015282519394503393908816927f4c6ab40ee4cfa212a441d32ee2897945b4a52461284f9369e23fdf8faa6cdd69928290030190a350505050505050565b6001546001600160a01b031681565b60006020819052908152604090205460ff1681565b6001546001600160a01b03163314610672576040805162461bcd60e51b8152602060048201526019602482015278121b5e53585b9859d95c8bdb9bdd0b585d5d1a1bdc9a5e9959603a1b604482015290519081900360640190fd5b60008181526020819052604090205460ff16156106c05760405162461bcd60e51b815260040180806020018281038252602a815260200180610ad8602a913960400191505060405180910390fd5b6000818152602081905260409020805460ff19166001179055836106f46001600160a01b038216848663ffffffff6107f516565b604080516001600160a01b038088168252602082018790528516818301526060810184905290517fb24e65d2501e29a3ce014b0cc2283699c081ad27f10d64f036f96912b6f8943e9181900360800190a15050505050565b604080516001600160a01b0385811660248301528416604482015260648082018490528251808303909101815260849091019091526020810180516001600160e01b03166323b872dd60e01b1790526107a690859061084c565b50505050565b60006107ee83836040518060400160405280601e81526020017f536166654d6174683a207375627472616374696f6e206f766572666c6f770000815250610a04565b9392505050565b604080516001600160a01b038416602482015260448082018490528251808303909101815260649091019091526020810180516001600160e01b031663a9059cbb60e01b17905261084790849061084c565b505050565b61085e826001600160a01b0316610a9b565b6108af576040805162461bcd60e51b815260206004820152601f60248201527f5361666545524332303a2063616c6c20746f206e6f6e2d636f6e747261637400604482015290519081900360640190fd5b60006060836001600160a01b0316836040518082805190602001908083835b602083106108ed5780518252601f1990920191602091820191016108ce565b6001836020036101000a0380198251168184511680821785525050505050509050019150506000604051808303816000865af19150503d806000811461094f576040519150601f19603f3d011682016040523d82523d6000602084013e610954565b606091505b5091509150816109ab576040805162461bcd60e51b815260206004820181905260248201527f5361666545524332303a206c6f772d6c6576656c2063616c6c206661696c6564604482015290519081900360640190fd5b8051156107a6578080602001905160208110156109c757600080fd5b50516107a65760405162461bcd60e51b815260040180806020018281038252602a815260200180610b28602a913960400191505060405180910390fd5b60008184841115610a935760405162461bcd60e51b81526004018080602001828103825283818151815260200191508051906020019080838360005b83811015610a58578181015183820152602001610a40565b50505050905090810190601f168015610a855780820380516001836020036101000a031916815260200191505b509250505060405180910390fd5b505050900390565b6000813f7fc5d2460186f7233c927e7db2dcc703c0e500b653ca82273b7bfad8045d85a470818114801590610acf57508115155b94935050505056fe4574684d616e616765722f546865206275726e206576656e742063616e6e6f74206265207265757365644574684d616e616765722f726563697069656e742069732061207a65726f20616464726573735361666545524332303a204552433230206f7065726174696f6e20646964206e6f742073756363656564a265627a7a72315820b76e5893856464514c15637c2bb3a692dd2d8a842125dd93149fa34931355f0964736f6c63430005110032",
  "source": "pragma solidity 0.5.17;\nimport \"@openzeppelin/contracts/math/SafeMath.sol\";\nimport \"@openzeppelin/contracts/token/ERC20/IERC20.sol\";\nimport \"@openzeppelin/contracts/token/ERC20/SafeERC20.sol\";\n\ncontract EthManager {\n    using SafeMath for uint256;\n    using SafeERC20 for IERC20;\n\n    mapping(bytes32 => bool) public usedEvents_;\n\n    event Locked(\n        address indexed token,\n        address indexed sender,\n        uint256 amount,\n        address recipient\n    );\n\n    event Unlocked(\n        address ethToken,\n        uint256 amount,\n        address recipient,\n        bytes32 receiptId\n    );\n\n    address public wallet;\n    modifier onlyWallet {\n        require(msg.sender == wallet, \"HmyManager/not-authorized\");\n        _;\n    }\n\n    /**\n     * @dev constructor\n     * @param _wallet is the multisig wallet\n     */\n    constructor(address _wallet) public {\n        wallet = _wallet;\n    }\n\n    /**\n     * @dev lock tokens to be minted on harmony chain\n     * @param ethTokenAddr is the ethereum token contract address\n     * @param amount amount of tokens to lock\n     * @param recipient recipient address on the harmony chain\n     */\n    function lockToken(\n        address ethTokenAddr,\n        uint256 amount,\n        address recipient\n    ) public {\n        require(\n            recipient != address(0),\n            \"EthManager/recipient is a zero address\"\n        );\n        require(amount > 0, \"EthManager/zero token locked\");\n        IERC20 ethToken = IERC20(ethTokenAddr);\n        uint256 _balanceBefore = ethToken.balanceOf(msg.sender);\n        ethToken.safeTransferFrom(msg.sender, address(this), amount);\n        uint256 _balanceAfter = ethToken.balanceOf(msg.sender);\n        uint256 _actualAmount = _balanceBefore.sub(_balanceAfter);\n        emit Locked(address(ethToken), msg.sender, _actualAmount, recipient);\n    }\n\n    /**\n     * @dev lock tokens for a user address to be minted on harmony chain\n     * @param ethTokenAddr is the ethereum token contract address\n     * @param userAddr is token holder address\n     * @param amount amount of tokens to lock\n     * @param recipient recipient address on the harmony chain\n     */\n    function lockTokenFor(\n        address ethTokenAddr,\n        address userAddr,\n        uint256 amount,\n        address recipient\n    ) public onlyWallet {\n        require(\n            recipient != address(0),\n            \"EthManager/recipient is a zero address\"\n        );\n        require(amount > 0, \"EthManager/zero token locked\");\n        IERC20 ethToken = IERC20(ethTokenAddr);\n        uint256 _balanceBefore = ethToken.balanceOf(userAddr);\n        ethToken.safeTransferFrom(userAddr, address(this), amount);\n        uint256 _balanceAfter = ethToken.balanceOf(userAddr);\n        uint256 _actualAmount = _balanceBefore.sub(_balanceAfter);\n        emit Locked(address(ethToken), userAddr, _actualAmount, recipient);\n    }\n\n    /**\n     * @dev unlock tokens after burning them on harmony chain\n     * @param ethTokenAddr is the ethereum token contract address\n     * @param amount amount of unlock tokens\n     * @param recipient recipient of the unlock tokens\n     * @param receiptId transaction hash of the burn event on harmony chain\n     */\n    function unlockToken(\n        address ethTokenAddr,\n        uint256 amount,\n        address recipient,\n        bytes32 receiptId\n    ) public onlyWallet {\n        require(\n            !usedEvents_[receiptId],\n            \"EthManager/The burn event cannot be reused\"\n        );\n        IERC20 ethToken = IERC20(ethTokenAddr);\n        usedEvents_[receiptId] = true;\n        ethToken.safeTransfer(recipient, amount);\n        emit Unlocked(ethTokenAddr, amount, recipient, receiptId);\n    }\n}\n",
  "sourcePath": "/Users/gupadhyaya/go/src/github.com/harmony-one/ethhmy-bridge/contracts/erc20/EthManager.sol",
  "compiler": {
    "name": "solc",
    "version": "0.5.17+commit.d19bba13.Emscripten.clang"
  },
  "schemaVersion": "3.2.1",
  "updatedAt": "2020-09-24T18:11:00.100Z",
  "devdoc": {
    "methods": {
      "constructor": {
        "details": "constructor",
        "params": {
          "_wallet": "is the multisig wallet"
        }
      },
      "lockToken(address,uint256,address)": {
        "details": "lock tokens to be minted on harmony chain",
        "params": {
          "amount": "amount of tokens to lock",
          "ethTokenAddr": "is the ethereum token contract address",
          "recipient": "recipient address on the harmony chain"
        }
      },
      "lockTokenFor(address,address,uint256,address)": {
        "details": "lock tokens for a user address to be minted on harmony chain",
        "params": {
          "amount": "amount of tokens to lock",
          "ethTokenAddr": "is the ethereum token contract address",
          "recipient": "recipient address on the harmony chain",
          "userAddr": "is token holder address"
        }
      },
      "unlockToken(address,uint256,address,bytes32)": {
        "details": "unlock tokens after burning them on harmony chain",
        "params": {
          "amount": "amount of unlock tokens",
          "ethTokenAddr": "is the ethereum token contract address",
          "receiptId": "transaction hash of the burn event on harmony chain",
          "recipient": "recipient of the unlock tokens"
        }
      }
    }
  },
  "userdoc": {
    "methods": {}
  }
}