{
  "contractName": "HmyManager",
  "abi": [
    {
      "inputs": [
        {
          "internalType": "address",
          "name": "_wallet",
          "type": "address"
        }
      ],
      "payable": false,
      "stateMutability": "nonpayable",
      "type": "constructor"
    },
    {
      "anonymous": false,
      "inputs": [
        {
          "indexed": true,
          "internalType": "address",
          "name": "token",
          "type": "address"
        },
        {
          "indexed": true,
          "internalType": "address",
          "name": "sender",
          "type": "address"
        },
        {
          "indexed": false,
          "internalType": "uint256",
          "name": "amount",
          "type": "uint256"
        },
        {
          "indexed": false,
          "internalType": "address",
          "name": "recipient",
          "type": "address"
        }
      ],
      "name": "Burned",
      "type": "event"
    },
    {
      "anonymous": false,
      "inputs": [
        {
          "indexed": false,
          "internalType": "address",
          "name": "oneToken",
          "type": "address"
        },
        {
          "indexed": false,
          "internalType": "uint256",
          "name": "amount",
          "type": "uint256"
        },
        {
          "indexed": false,
          "internalType": "address",
          "name": "recipient",
          "type": "address"
        },
        {
          "indexed": false,
          "internalType": "bytes32",
          "name": "receiptId",
          "type": "bytes32"
        }
      ],
      "name": "Minted",
      "type": "event"
    },
    {
      "constant": true,
      "inputs": [
        {
          "internalType": "address",
          "name": "",
          "type": "address"
        }
      ],
      "name": "mappings",
      "outputs": [
        {
          "internalType": "address",
          "name": "",
          "type": "address"
        }
      ],
      "payable": false,
      "stateMutability": "view",
      "type": "function"
    },
    {
      "constant": true,
      "inputs": [
        {
          "internalType": "bytes32",
          "name": "",
          "type": "bytes32"
        }
      ],
      "name": "usedEvents_",
      "outputs": [
        {
          "internalType": "bool",
          "name": "",
          "type": "bool"
        }
      ],
      "payable": false,
      "stateMutability": "view",
      "type": "function"
    },
    {
      "constant": true,
      "inputs": [],
      "name": "wallet",
      "outputs": [
        {
          "internalType": "address",
          "name": "",
          "type": "address"
        }
      ],
      "payable": false,
      "stateMutability": "view",
      "type": "function"
    },
    {
      "constant": false,
      "inputs": [
        {
          "internalType": "address",
          "name": "tokenManager",
          "type": "address"
        },
        {
          "internalType": "address",
          "name": "ethTokenAddr",
          "type": "address"
        },
        {
          "internalType": "string",
          "name": "name",
          "type": "string"
        },
        {
          "internalType": "string",
          "name": "symbol",
          "type": "string"
        },
        {
          "internalType": "uint8",
          "name": "decimals",
          "type": "uint8"
        }
      ],
      "name": "addToken",
      "outputs": [],
      "payable": false,
      "stateMutability": "nonpayable",
      "type": "function"
    },
    {
      "constant": false,
      "inputs": [
        {
          "internalType": "address",
          "name": "tokenManager",
          "type": "address"
        },
        {
          "internalType": "address",
          "name": "ethTokenAddr",
          "type": "address"
        }
      ],
      "name": "removeToken",
      "outputs": [],
      "payable": false,
      "stateMutability": "nonpayable",
      "type": "function"
    },
    {
      "constant": false,
      "inputs": [
        {
          "internalType": "address",
          "name": "oneToken",
          "type": "address"
        },
        {
          "internalType": "uint256",
          "name": "amount",
          "type": "uint256"
        },
        {
          "internalType": "address",
          "name": "recipient",
          "type": "address"
        }
      ],
      "name": "burnToken",
      "outputs": [],
      "payable": false,
      "stateMutability": "nonpayable",
      "type": "function"
    },
    {
      "constant": false,
      "inputs": [
        {
          "internalType": "address",
          "name": "oneToken",
          "type": "address"
        },
        {
          "internalType": "uint256",
          "name": "amount",
          "type": "uint256"
        },
        {
          "internalType": "address",
          "name": "recipient",
          "type": "address"
        },
        {
          "internalType": "bytes32",
          "name": "receiptId",
          "type": "bytes32"
        }
      ],
      "name": "mintToken",
      "outputs": [],
      "payable": false,
      "stateMutability": "nonpayable",
      "type": "function"
    }
  ],
  "bytecode": "0x608060405234801561001057600080fd5b5060405161083f38038061083f8339818101604052602081101561003357600080fd5b5051600280546001600160a01b0319166001600160a01b039092169190911790556107dc806100636000396000f3fe608060405234801561001057600080fd5b506004361061007d5760003560e01c8063a0e3d1a01161005b578063a0e3d1a0146100fc578063bccc9fcf14610132578063e8162bda14610163578063f633be1e146102ae5761007d565b80634110261914610082578063521eb273146100c45780639735b0e3146100cc575b600080fd5b6100a86004803603602081101561009857600080fd5b50356001600160a01b03166102e8565b604080516001600160a01b039092168252519081900360200190f35b6100a8610303565b6100fa600480360360408110156100e257600080fd5b506001600160a01b0381358116916020013516610312565b005b6100fa6004803603606081101561011257600080fd5b506001600160a01b0381358116916020810135916040909101351661037d565b61014f6004803603602081101561014857600080fd5b5035610432565b604080519115158252519081900360200190f35b6100fa600480360360a081101561017957600080fd5b6001600160a01b0382358116926020810135909116918101906060810160408201356401000000008111156101ad57600080fd5b8201836020820111156101bf57600080fd5b803590602001918460018302840111640100000000831117156101e157600080fd5b91908080601f016020809104026020016040519081016040528093929190818152602001838380828437600092019190915250929594936020810193503591505064010000000081111561023457600080fd5b82018360208201111561024657600080fd5b8035906020019184600183028401116401000000008311171561026857600080fd5b91908080601f0160208091040260200160405190810160405280939291908181526020018383808284376000920191909152509295505050903560ff1691506104479050565b6100fa600480360360808110156102c457600080fd5b506001600160a01b03813581169160208101359160408201351690606001356105e3565b6001602052600090815260409020546001600160a01b031681565b6002546001600160a01b031681565b604080516309dd78f360e11b81526001600160a01b0383811660048301526000602483018190529251908516926313baf1e6926044808201939182900301818387803b15801561036157600080fd5b505af1158015610375573d6000803e3d6000fd5b505050505050565b6040805163079cc67960e41b81523360048201526024810184905290516001600160a01b038516916379cc679091604480830192600092919082900301818387803b1580156103cb57600080fd5b505af11580156103df573d6000803e3d6000fd5b5050604080518581526001600160a01b038581166020830152825133955090881693507f47b4128ad231bee46bdb1f8614450b5ffe6eb96340e87519a0c3a8b91ee714ec929181900390910190a3505050565b60006020819052908152604090205460ff1681565b6000856001600160a01b0316638e404e9c868686866040518563ffffffff1660e01b815260040180856001600160a01b03166001600160a01b0316815260200180602001806020018460ff1660ff168152602001838103835286818151815260200191508051906020019080838360005b838110156104d05781810151838201526020016104b8565b50505050905090810190601f1680156104fd5780820380516001836020036101000a031916815260200191505b50838103825285518152855160209182019187019080838360005b83811015610530578181015183820152602001610518565b50505050905090810190601f16801561055d5780820380516001836020036101000a031916815260200191505b509650505050505050602060405180830381600087803b15801561058057600080fd5b505af1158015610594573d6000803e3d6000fd5b505050506040513d60208110156105aa57600080fd5b50516001600160a01b03958616600090815260016020526040902080546001600160a01b03191696909116959095179094555050505050565b6002546001600160a01b03163314610642576040805162461bcd60e51b815260206004820152601960248201527f486d794d616e616765722f6e6f742d617574686f72697a656400000000000000604482015290519081900360640190fd5b60008181526020819052604090205460ff16156106905760405162461bcd60e51b815260040180806020018281038252602a81526020018061077e602a913960400191505060405180910390fd5b600081815260208181526040808320805460ff1916600117905580516340c10f1960e01b81526001600160a01b038681166004830152602482018890529151918816936340c10f199360448084019491939192918390030190829087803b1580156106fa57600080fd5b505af115801561070e573d6000803e3d6000fd5b505050506040513d602081101561072457600080fd5b5050604080516001600160a01b038087168252602082018690528416818301526060810183905290517ffdc0a3af821280dd73e4f6683e16c5afc31a629d07af623f9a4689d6855938869181900360800190a15050505056fe486d794d616e616765722f546865206c6f636b206576656e742063616e6e6f7420626520726575736564a265627a7a723158208f5d48ec3943df5219c6413b094d243ac7780fe2f65284913943847cd983bd9264736f6c63430005110032",
  "source": "pragma solidity 0.5.17;\nimport \"@openzeppelin/contracts/token/ERC20/IERC20.sol\";\nimport \"../lib/TokenManager.sol\";\n\ninterface MintableToken {\n    function mint(address beneficiary, uint256 amount) external returns (bool);\n}\n\ninterface BurnableToken {\n    function burnFrom(address account, uint256 amount) external;\n}\n\ncontract HmyManager {\n    mapping(bytes32 => bool) public usedEvents_;\n    mapping(address => address) public mappings;\n\n    event Burned(\n        address indexed token,\n        address indexed sender,\n        uint256 amount,\n        address recipient\n    );\n\n    event Minted(\n        address oneToken,\n        uint256 amount,\n        address recipient,\n        bytes32 receiptId\n    );\n\n    address public wallet;\n    modifier onlyWallet {\n        require(msg.sender == wallet, \"HmyManager/not-authorized\");\n        _;\n    }\n\n    /**\n     * @dev constructor\n     * @param _wallet is the multisig wallet\n     */\n    constructor(address _wallet) public {\n        wallet = _wallet;\n    }\n\n    /**\n     * @dev map an ethereum token to harmony\n     * @param tokenManager address to token manager\n     * @param ethTokenAddr ethereum token address to map\n     * @param name of the ethereum token\n     * @param symbol of the ethereum token\n     * @param decimals of the ethereum token\n     */\n    function addToken(\n        address tokenManager,\n        address ethTokenAddr,\n        string memory name,\n        string memory symbol,\n        uint8 decimals\n    ) public {\n        address oneTokenAddr = TokenManager(tokenManager).addToken(\n            ethTokenAddr,\n            name,\n            symbol,\n            decimals\n        );\n        mappings[ethTokenAddr] = oneTokenAddr;\n    }\n\n    /**\n     * @dev deregister token mapping in the token manager\n     * @param tokenManager address to token manager\n     * @param ethTokenAddr address to remove token\n     */\n    function removeToken(address tokenManager, address ethTokenAddr) public {\n        TokenManager(tokenManager).removeToken(ethTokenAddr, 0);\n    }\n\n    /**\n     * @dev burns tokens on harmony to be unlocked on ethereum\n     * @param oneToken harmony token address\n     * @param amount amount of tokens to burn\n     * @param recipient recipient of the unlock tokens on ethereum\n     */\n    function burnToken(\n        address oneToken,\n        uint256 amount,\n        address recipient\n    ) public {\n        BurnableToken(oneToken).burnFrom(msg.sender, amount);\n        emit Burned(oneToken, msg.sender, amount, recipient);\n    }\n\n    /**\n     * @dev mints tokens corresponding to the tokens locked in the ethereum chain\n     * @param oneToken is the token address for minting\n     * @param amount amount of tokens for minting\n     * @param recipient recipient of the minted tokens (harmony address)\n     * @param receiptId transaction hash of the lock event on ethereum chain\n     */\n    function mintToken(\n        address oneToken,\n        uint256 amount,\n        address recipient,\n        bytes32 receiptId\n    ) public onlyWallet {\n        require(\n            !usedEvents_[receiptId],\n            \"HmyManager/The lock event cannot be reused\"\n        );\n        usedEvents_[receiptId] = true;\n        MintableToken(oneToken).mint(recipient, amount);\n        emit Minted(oneToken, amount, recipient, receiptId);\n    }\n}\n",
  "sourcePath": "/Users/gupadhyaya/go/src/github.com/harmony-one/ethhmy-bridge/contracts/erc20/HmyManager.sol",
  "compiler": {
    "name": "solc",
    "version": "0.5.17+commit.d19bba13.Emscripten.clang"
  },
  "schemaVersion": "3.2.1",
  "updatedAt": "2020-09-24T03:46:59.279Z",
  "devdoc": {
    "methods": {
      "addToken(address,address,string,string,uint8)": {
        "details": "map an ethereum token to harmony",
        "params": {
          "decimals": "of the ethereum token",
          "ethTokenAddr": "ethereum token address to map",
          "name": "of the ethereum token",
          "symbol": "of the ethereum token",
          "tokenManager": "address to token manager"
        }
      },
      "burnToken(address,uint256,address)": {
        "details": "burns tokens on harmony to be unlocked on ethereum",
        "params": {
          "amount": "amount of tokens to burn",
          "oneToken": "harmony token address",
          "recipient": "recipient of the unlock tokens on ethereum"
        }
      },
      "constructor": {
        "details": "constructor",
        "params": {
          "_wallet": "is the multisig wallet"
        }
      },
      "mintToken(address,uint256,address,bytes32)": {
        "details": "mints tokens corresponding to the tokens locked in the ethereum chain",
        "params": {
          "amount": "amount of tokens for minting",
          "oneToken": "is the token address for minting",
          "receiptId": "transaction hash of the lock event on ethereum chain",
          "recipient": "recipient of the minted tokens (harmony address)"
        }
      },
      "removeToken(address,address)": {
        "details": "deregister token mapping in the token manager",
        "params": {
          "ethTokenAddr": "address to remove token",
          "tokenManager": "address to token manager"
        }
      }
    }
  },
  "userdoc": {
    "methods": {}
  }
}