{
  "contractName": "HRC1155TokenManager",
  "abi": [
    {
      "anonymous": false,
      "inputs": [
        {
          "indexed": true,
          "internalType": "address",
          "name": "previousOwner",
          "type": "address"
        },
        {
          "indexed": true,
          "internalType": "address",
          "name": "newOwner",
          "type": "address"
        }
      ],
      "name": "OwnershipTransferred",
      "type": "event"
    },
    {
      "anonymous": false,
      "inputs": [
        {
          "indexed": true,
          "internalType": "address",
          "name": "tokenReq",
          "type": "address"
        },
        {
          "indexed": true,
          "internalType": "address",
          "name": "tokenAck",
          "type": "address"
        }
      ],
      "name": "TokenMapAck",
      "type": "event"
    },
    {
      "constant": true,
      "inputs": [],
      "name": "isOwner",
      "outputs": [
        {
          "internalType": "bool",
          "name": "",
          "type": "bool"
        }
      ],
      "payable": false,
      "stateMutability": "view",
      "type": "function"
    },
    {
      "constant": true,
      "inputs": [
        {
          "internalType": "address",
          "name": "",
          "type": "address"
        }
      ],
      "name": "mappedTokens",
      "outputs": [
        {
          "internalType": "address",
          "name": "",
          "type": "address"
        }
      ],
      "payable": false,
      "stateMutability": "view",
      "type": "function"
    },
    {
      "constant": true,
      "inputs": [],
      "name": "owner",
      "outputs": [
        {
          "internalType": "address",
          "name": "",
          "type": "address"
        }
      ],
      "payable": false,
      "stateMutability": "view",
      "type": "function"
    },
    {
      "constant": false,
      "inputs": [],
      "name": "renounceOwnership",
      "outputs": [],
      "payable": false,
      "stateMutability": "nonpayable",
      "type": "function"
    },
    {
      "constant": false,
      "inputs": [
        {
          "internalType": "address",
          "name": "newOwner",
          "type": "address"
        }
      ],
      "name": "transferOwnership",
      "outputs": [],
      "payable": false,
      "stateMutability": "nonpayable",
      "type": "function"
    },
    {
      "constant": true,
      "inputs": [
        {
          "internalType": "address",
          "name": "",
          "type": "address"
        }
      ],
      "name": "wards",
      "outputs": [
        {
          "internalType": "uint256",
          "name": "",
          "type": "uint256"
        }
      ],
      "payable": false,
      "stateMutability": "view",
      "type": "function"
    },
    {
      "constant": false,
      "inputs": [
        {
          "internalType": "address",
          "name": "guy",
          "type": "address"
        }
      ],
      "name": "rely",
      "outputs": [],
      "payable": false,
      "stateMutability": "nonpayable",
      "type": "function"
    },
    {
      "constant": false,
      "inputs": [
        {
          "internalType": "address",
          "name": "guy",
          "type": "address"
        }
      ],
      "name": "deny",
      "outputs": [],
      "payable": false,
      "stateMutability": "nonpayable",
      "type": "function"
    },
    {
      "constant": false,
      "inputs": [
        {
          "internalType": "address",
          "name": "ethTokenAddr",
          "type": "address"
        },
        {
          "internalType": "string",
          "name": "name",
          "type": "string"
        },
        {
          "internalType": "string",
          "name": "symbol",
          "type": "string"
        },
        {
          "internalType": "string",
          "name": "baseURI",
          "type": "string"
        }
      ],
      "name": "addHRC1155Token",
      "outputs": [
        {
          "internalType": "address",
          "name": "",
          "type": "address"
        }
      ],
      "payable": false,
      "stateMutability": "nonpayable",
      "type": "function"
    },
    {
      "constant": false,
      "inputs": [
        {
          "internalType": "address",
          "name": "ethTokenAddr",
          "type": "address"
        },
        {
          "internalType": "address",
          "name": "oneTokenAddr",
          "type": "address"
        }
      ],
      "name": "registerToken",
      "outputs": [
        {
          "internalType": "bool",
          "name": "",
          "type": "bool"
        }
      ],
      "payable": false,
      "stateMutability": "nonpayable",
      "type": "function"
    },
    {
      "constant": false,
      "inputs": [
        {
          "internalType": "address",
          "name": "ethTokenAddr",
          "type": "address"
        },
        {
          "internalType": "uint256",
          "name": "supply",
          "type": "uint256"
        }
      ],
      "name": "removeHRC1155Token",
      "outputs": [],
      "payable": false,
      "stateMutability": "nonpayable",
      "type": "function"
    }
  ],
  "bytecode": "0x608060405260006100176001600160e01b0361006616565b600080546001600160a01b0319166001600160a01b0383169081178255604051929350917f8be0079c531659141344cd1fd0a4f28419497f9722a3daafe3b4186f6b6457e0908290a35061006a565b3390565b6144a5806100796000396000f3fe60806040523480156200001157600080fd5b5060043610620000b85760003560e01c80638da5cb5b116200007b5780638da5cb5b14620003525780638f32d59b146200035c5780639c52a7f11462000366578063bf353dbb146200038f578063e6ede14d14620003ca578063f2fde38b14620003f357620000b8565b80631e81a82414620000bd5780634739f7e514620000ee57806365fae35e1462000133578063715018a6146200015c578063899c95631462000166575b600080fd5b620000ec60048036036040811015620000d557600080fd5b506001600160a01b0381351690602001356200041c565b005b6200011f600480360360408110156200010657600080fd5b506001600160a01b0381358116916020013516620005c5565b604080519115158252519081900360200190f35b620000ec600480360360208110156200014b57600080fd5b50356001600160a01b031662000701565b620000ec62000769565b62000336600480360360808110156200017e57600080fd5b6001600160a01b038235169190810190604081016020820135640100000000811115620001aa57600080fd5b820183602082011115620001bd57600080fd5b80359060200191846001830284011164010000000083111715620001e057600080fd5b91908080601f01602080910402602001604051908101604052809392919081815260200183838082843760009201919091525092959493602081019350359150506401000000008111156200023457600080fd5b8201836020820111156200024757600080fd5b803590602001918460018302840111640100000000831117156200026a57600080fd5b91908080601f0160208091040260200160405190810160405280939291908181526020018383808284376000920191909152509295949360208101935035915050640100000000811115620002be57600080fd5b820183602082011115620002d157600080fd5b80359060200191846001830284011164010000000083111715620002f457600080fd5b91908080601f016020809104026020016040519081016040528093929190818152602001838380828437600092019190915250929550620007fe945050505050565b604080516001600160a01b039092168252519081900360200190f35b6200033662000b4d565b6200011f62000b5c565b620000ec600480360360208110156200037e57600080fd5b50356001600160a01b031662000b82565b620003b860048036036020811015620003a757600080fd5b50356001600160a01b031662000c43565b60408051918252519081900360200190f35b6200033660048036036020811015620003e257600080fd5b50356001600160a01b031662000c55565b620000ec600480360360208110156200040b57600080fd5b50356001600160a01b031662000c70565b3360009081526002602052604090205460011462000481576040805162461bcd60e51b815260206004820152601b60248201527f546f6b656e4d616e616765722f6e6f742d617574686f72697a65640000000000604482015290519081900360640190fd5b6001600160a01b0382811660009081526001602052604090205416620004d95760405162461bcd60e51b815260040180806020018281038252602d815260200180620043d5602d913960400191505060405180910390fd5b6001600160a01b0380831660009081526001602090815260409182902054825163e96e2ced60e01b815260048101869052925193169263e96e2ced926024808201939291829003018186803b1580156200053257600080fd5b505afa15801562000547573d6000803e3d6000fd5b505050506040513d60208110156200055e57600080fd5b50516200059d5760405162461bcd60e51b81526004018080602001828103825260278152602001806200444a6027913960400191505060405180910390fd5b506001600160a01b0316600090815260016020526040902080546001600160a01b0319169055565b336000908152600260205260408120546001146200062a576040805162461bcd60e51b815260206004820152601b60248201527f546f6b656e4d616e616765722f6e6f742d617574686f72697a65640000000000604482015290519081900360640190fd5b6001600160a01b038316620006715760405162461bcd60e51b815260040180806020018281038252602b81526020018062004317602b913960400191505060405180910390fd5b6001600160a01b038381166000908152600160205260409020541615620006ca5760405162461bcd60e51b8152600401808060200182810382526028815260200180620044226028913960400191505060405180910390fd5b506001600160a01b03918216600090815260016020819052604090912080546001600160a01b031916929093169190911790915590565b6200070b62000b5c565b6200074c576040805162461bcd60e51b8152602060048201819052602482015260008051602062004402833981519152604482015290519081900360640190fd5b6001600160a01b0316600090815260026020526040902060019055565b6200077362000b5c565b620007b4576040805162461bcd60e51b8152602060048201819052602482015260008051602062004402833981519152604482015290519081900360640190fd5b600080546040516001600160a01b03909116907f8be0079c531659141344cd1fd0a4f28419497f9722a3daafe3b4186f6b6457e0908390a3600080546001600160a01b0319169055565b3360009081526002602052604081205460011462000863576040805162461bcd60e51b815260206004820152601b60248201527f546f6b656e4d616e616765722f6e6f742d617574686f72697a65640000000000604482015290519081900360640190fd5b6001600160a01b038516620008aa5760405162461bcd60e51b8152600401808060200182810382526027815260200180620043686027913960400191505060405180910390fd5b6001600160a01b038581166000908152600160205260409020541615620009035760405162461bcd60e51b81526004018080602001828103825260248152602001806200438f6024913960400191505060405180910390fd5b600085858585604051620009179062000d6f565b6001600160a01b03851681526080602080830182815286519284019290925285516040840191606085019160a086019189019080838360005b838110156200096a57818101518382015260200162000950565b50505050905090810190601f168015620009985780820380516001836020036101000a031916815260200191505b50848103835286518152865160209182019188019080838360005b83811015620009cd578181015183820152602001620009b3565b50505050905090810190601f168015620009fb5780820380516001836020036101000a031916815260200191505b50848103825285518152855160209182019187019080838360005b8381101562000a3057818101518382015260200162000a16565b50505050905090810190601f16801562000a5e5780820380516001836020036101000a031916815260200191505b50975050505050505050604051809103906000f08015801562000a85573d6000803e3d6000fd5b506001600160a01b0387811660009081526001602052604080822080546001600160a01b03191693851693841790558051634c1d96ab60e11b81523360048201529051939450849363983b2d569260248084019391929182900301818387803b15801562000af257600080fd5b505af115801562000b07573d6000803e3d6000fd5b50506040516001600160a01b0380851693508a1691507f78591f651c27eef63481b7fd779e44c2426cbe82c7050fe9bc90b6707efbc3d390600090a39695505050505050565b6000546001600160a01b031690565b600080546001600160a01b031662000b7362000cc9565b6001600160a01b031614905090565b62000b8c62000b5c565b62000bcd576040805162461bcd60e51b8152602060048201819052602482015260008051602062004402833981519152604482015290519081900360640190fd5b62000bd762000b4d565b6001600160a01b0316816001600160a01b0316141562000c295760405162461bcd60e51b8152600401808060200182810382526022815260200180620043b36022913960400191505060405180910390fd5b6001600160a01b0316600090815260026020526040812055565b60026020526000908152604090205481565b6001602052600090815260409020546001600160a01b031681565b62000c7a62000b5c565b62000cbb576040805162461bcd60e51b8152602060048201819052602482015260008051602062004402833981519152604482015290519081900360640190fd5b62000cc68162000ccd565b50565b3390565b6001600160a01b03811662000d145760405162461bcd60e51b8152600401808060200182810382526026815260200180620043426026913960400191505060405180910390fd5b600080546040516001600160a01b03808516939216917f8be0079c531659141344cd1fd0a4f28419497f9722a3daafe3b4186f6b6457e091a3600080546001600160a01b0319166001600160a01b0392909216919091179055565b6135998062000d7e8339019056fe60806040523480156200001157600080fd5b506040516200359938038062003599833981810160405260808110156200003757600080fd5b8151602083018051604051929492938301929190846401000000008211156200005f57600080fd5b9083019060208201858111156200007557600080fd5b82516401000000008111828201881017156200009057600080fd5b82525081516020918201929091019080838360005b83811015620000bf578181015183820152602001620000a5565b50505050905090810190601f168015620000ed5780820380516001836020036101000a031916815260200191505b50604052602001805160405193929190846401000000008211156200011157600080fd5b9083019060208201858111156200012757600080fd5b82516401000000008111828201881017156200014257600080fd5b82525081516020918201929091019080838360005b838110156200017157818101518382015260200162000157565b50505050905090810190601f1680156200019f5780820380516001836020036101000a031916815260200191505b5060405260200180516040519392919084640100000000821115620001c357600080fd5b908301906020820185811115620001d957600080fd5b8251640100000000811182820188101715620001f457600080fd5b82525081516020918201929091019080838360005b838110156200022357818101518382015260200162000209565b50505050905090810190601f168015620002515780820380516001836020036101000a031916815260200191505b5060405250505060006200026a6200034360201b60201c565b600380546001600160a01b0319166001600160a01b038316908117909155604051919250906000907f8be0079c531659141344cd1fd0a4f28419497f9722a3daafe3b4186f6b6457e0908290a350620002de620002cf6001600160e01b036200034316565b6001600160e01b036200034816565b600580546001600160a01b0319166001600160a01b03861617905582516200030e906007906020860190620004a9565b50815162000324906008906020850190620004a9565b5062000339816001600160e01b036200039a16565b505050506200054b565b335b90565b62000363816004620003b360201b62002b1a1790919060201c565b6040516001600160a01b038216907f6ae172837ea30b801fbfcdd4108aa1d5bf8ff775444fd70256b44e6bf3dfc3f690600090a250565b8051620003af906002906020840190620004a9565b5050565b620003c882826001600160e01b036200044016565b156200041b576040805162461bcd60e51b815260206004820152601f60248201527f526f6c65733a206163636f756e7420616c72656164792068617320726f6c6500604482015290519081900360640190fd5b6001600160a01b0316600090815260209190915260409020805460ff19166001179055565b60006001600160a01b038216620004895760405162461bcd60e51b8152600401808060200182810382526022815260200180620035776022913960400191505060405180910390fd5b506001600160a01b03166000908152602091909152604090205460ff1690565b828054600181600116156101000203166002900490600052602060002090601f016020900481019282601f10620004ec57805160ff19168380011785556200051c565b828001600101855582156200051c579182015b828111156200051c578251825591602001919060010190620004ff565b506200052a9291506200052e565b5090565b6200034591905b808211156200052a576000815560010162000535565b61301c806200055b6000396000f3fe608060405234801561001057600080fd5b50600436106101e45760003560e01c80637e518ec81161010f578063b48ab8b6116100a2578063f242432a11610071578063f242432a14610c1d578063f2fde38b14610ce6578063f5298aca14610d0c578063f6eb127a14610d3e576101e4565b8063b48ab8b6146109fd578063bd85b03914610bb5578063e96e2ced14610bd2578063e985e9c514610bef576101e4565b8063983b2d56116100de578063983b2d561461097b57806398650275146109a1578063a22cb465146109a9578063aa271e1a146109d7576101e4565b80637e518ec8146108bf5780638da5cb5b146109635780638f32d59b1461096b57806395d89b4114610973576101e4565b80632eb2c2d61161018757806364631b401161015657806364631b4014610739578063715018a6146107da578063731133e9146107e25780637cf5dab0146108a2576101e4565b80632eb2c2d6146103e05780633a9ebefd146105a15780634e1273f4146105be57806361bc221a14610731576101e4565b80630e89341c116101c35780630e89341c146102df57806316084f1f146102fc5780631d38f2031461039f5780632693ebf2146103c3576101e4565b8062fdd58e146101e957806301ffc9a71461022757806306fdde0314610262575b600080fd5b610215600480360360408110156101ff57600080fd5b506001600160a01b038135169060200135610e71565b60408051918252519081900360200190f35b61024e6004803603602081101561023d57600080fd5b50356001600160e01b031916610e97565b604080519115158252519081900360200190f35b61026a610ede565b6040805160208082528351818301528351919283929083019185019080838360005b838110156102a457818101518382015260200161028c565b50505050905090810190601f1680156102d15780820380516001836020036101000a031916815260200191505b509250505060405180910390f35b61026a600480360360208110156102f557600080fd5b5035610f75565b61039d6004803603602081101561031257600080fd5b810190602081018135600160201b81111561032c57600080fd5b82018360208201111561033e57600080fd5b803590602001918460208302840111600160201b8311171561035f57600080fd5b91908080602002602001604051908101604052809392919081815260200183836020028082843760009201919091525092955061101a945050505050565b005b6103a761109d565b604080516001600160a01b039092168252519081900360200190f35b610215600480360360208110156103d957600080fd5b50356110ac565b61039d600480360360a08110156103f657600080fd5b6001600160a01b038235811692602081013590911691810190606081016040820135600160201b81111561042957600080fd5b82018360208201111561043b57600080fd5b803590602001918460208302840111600160201b8311171561045c57600080fd5b9190808060200260200160405190810160405280939291908181526020018383602002808284376000920191909152509295949360208101935035915050600160201b8111156104ab57600080fd5b8201836020820111156104bd57600080fd5b803590602001918460208302840111600160201b831117156104de57600080fd5b9190808060200260200160405190810160405280939291908181526020018383602002808284376000920191909152509295949360208101935035915050600160201b81111561052d57600080fd5b82018360208201111561053f57600080fd5b803590602001918460018302840111600160201b8311171561056057600080fd5b91908080601f0160208091040260200160405190810160405280939291908181526020018383808284376000920191909152509295506110be945050505050565b61039d600480360360208110156105b757600080fd5b503561117a565b6106e1600480360360408110156105d457600080fd5b810190602081018135600160201b8111156105ee57600080fd5b82018360208201111561060057600080fd5b803590602001918460208302840111600160201b8311171561062157600080fd5b9190808060200260200160405190810160405280939291908181526020018383602002808284376000920191909152509295949360208101935035915050600160201b81111561067057600080fd5b82018360208201111561068257600080fd5b803590602001918460208302840111600160201b831117156106a357600080fd5b9190808060200260200160405190810160405280939291908181526020018383602002808284376000920191909152509295506111cc945050505050565b60408051602080825283518183015283519192839290830191858101910280838360005b8381101561071d578181015183820152602001610705565b505050509050019250505060405180910390f35b6102156112cd565b61039d6004803603602081101561074f57600080fd5b810190602081018135600160201b81111561076957600080fd5b82018360208201111561077b57600080fd5b803590602001918460208302840111600160201b8311171561079c57600080fd5b9190808060200260200160405190810160405280939291908181526020018383602002808284376000920191909152509295506112d3945050505050565b61039d61134e565b61039d600480360360808110156107f857600080fd5b6001600160a01b038235169160208101359160408201359190810190608081016060820135600160201b81111561082e57600080fd5b82018360208201111561084057600080fd5b803590602001918460018302840111600160201b8311171561086157600080fd5b91908080601f0160208091040260200160405190810160405280939291908181526020018383808284376000920191909152509295506113f1945050505050565b61039d600480360360208110156108b857600080fd5b503561147a565b61039d600480360360208110156108d557600080fd5b810190602081018135600160201b8111156108ef57600080fd5b82018360208201111561090157600080fd5b803590602001918460018302840111600160201b8311171561092257600080fd5b91908080601f0160208091040260200160405190810160405280939291908181526020018383808284376000920191909152509295506114cb945050505050565b6103a7611530565b61024e61153f565b61026a611565565b61039d6004803603602081101561099157600080fd5b50356001600160a01b03166115c6565b61039d611615565b61039d600480360360408110156109bf57600080fd5b506001600160a01b0381351690602001351515611627565b61024e600480360360208110156109ed57600080fd5b50356001600160a01b0316611695565b61039d60048036036080811015610a1357600080fd5b6001600160a01b038235169190810190604081016020820135600160201b811115610a3d57600080fd5b820183602082011115610a4f57600080fd5b803590602001918460208302840111600160201b83111715610a7057600080fd5b9190808060200260200160405190810160405280939291908181526020018383602002808284376000920191909152509295949360208101935035915050600160201b811115610abf57600080fd5b820183602082011115610ad157600080fd5b803590602001918460208302840111600160201b83111715610af257600080fd5b9190808060200260200160405190810160405280939291908181526020018383602002808284376000920191909152509295949360208101935035915050600160201b811115610b4157600080fd5b820183602082011115610b5357600080fd5b803590602001918460018302840111600160201b83111715610b7457600080fd5b91908080601f0160208091040260200160405190810160405280939291908181526020018383808284376000920191909152509295506116a8945050505050565b61021560048036036020811015610bcb57600080fd5b503561177f565b61024e60048036036020811015610be857600080fd5b5035611791565b61024e60048036036040811015610c0557600080fd5b506001600160a01b0381358116916020013516611798565b61039d600480360360a0811015610c3357600080fd5b6001600160a01b03823581169260208101359091169160408201359160608101359181019060a081016080820135600160201b811115610c7257600080fd5b820183602082011115610c8457600080fd5b803590602001918460018302840111600160201b83111715610ca557600080fd5b91908080601f0160208091040260200160405190810160405280939291908181526020018383808284376000920191909152509295506117c6945050505050565b61039d60048036036020811015610cfc57600080fd5b50356001600160a01b031661187b565b61039d60048036036060811015610d2257600080fd5b506001600160a01b0381351690602081013590604001356118dd565b61039d60048036036060811015610d5457600080fd5b6001600160a01b038235169190810190604081016020820135600160201b811115610d7e57600080fd5b820183602082011115610d9057600080fd5b803590602001918460208302840111600160201b83111715610db157600080fd5b9190808060200260200160405190810160405280939291908181526020018383602002808284376000920191909152509295949360208101935035915050600160201b811115610e0057600080fd5b820183602082011115610e1257600080fd5b803590602001918460208302840111600160201b83111715610e3357600080fd5b9190808060200260200160405190810160405280939291908181526020018383602002808284376000920191909152509295506119c0945050505050565b6001600160a01b0391909116600090815260208181526040808320938352929052205490565b60006001600160e01b031982166301ffc9a760e01b1480610ec857506001600160e01b03198216636cdb3d1360e11b145b15610ed557506001610ed9565b5060005b919050565b60078054604080516020601f6002600019610100600188161502019095169490940493840181900481028201810190925282815260609390929091830182828015610f6a5780601f10610f3f57610100808354040283529160200191610f6a565b820191906000526020600020905b815481529060010190602001808311610f4d57829003601f168201915b505050505090505b90565b6002805460408051602060018416156101000260001901909316849004601f810184900484028201840190925281815260609361101493919290918301828280156110015780601f10610fd657610100808354040283529160200191611001565b820191906000526020600020905b815481529060010190602001808311610fe457829003601f168201915b505050505061100f84611bf7565b611cb8565b92915050565b61102a611025611cfb565b611695565b6110655760405162461bcd60e51b8152600401808060200182810382526030815260200180612de26030913960400191505060405180910390fd5b60005b81518110156110995781818151811061107d57fe5b6020908102919091010151600680549091019055600101611068565b5050565b6005546001600160a01b031681565b60096020526000908152604090205481565b336001600160a01b03861614806110da57506110da8533611798565b6111155760405162461bcd60e51b815260040180806020018281038252602f815260200180612ee1602f913960400191505060405180910390fd5b6001600160a01b03841661115a5760405162461bcd60e51b8152600401808060200182810382526030815260200180612e636030913960400191505060405180910390fd5b61116685858585611cff565b6111738585858585611f85565b5050505050565b611185611025611cfb565b6111c05760405162461bcd60e51b8152600401808060200182810382526030815260200180612de26030913960400191505060405180910390fd5b60068054919091039055565b6060815183511461120e5760405162461bcd60e51b815260040180806020018281038252602c815260200180612eb5602c913960400191505060405180910390fd5b6060835160405190808252806020026020018201604052801561123b578160200160208202803883390190505b50905060005b84518110156112c55760008086838151811061125957fe5b60200260200101516001600160a01b03166001600160a01b03168152602001908152602001600020600085838151811061128f57fe5b60200260200101518152602001908152602001600020548282815181106112b257fe5b6020908102919091010152600101611241565b509392505050565b60065481565b6112de611025611cfb565b6113195760405162461bcd60e51b8152600401808060200182810382526030815260200180612de26030913960400191505060405180910390fd5b60005b81518110156110995781818151811061133157fe5b60209081029190910101516006805491909103905560010161131c565b61135661153f565b6113a7576040805162461bcd60e51b815260206004820181905260248201527f4f776e61626c653a2063616c6c6572206973206e6f7420746865206f776e6572604482015290519081900360640190fd5b6003546040516000916001600160a01b0316907f8be0079c531659141344cd1fd0a4f28419497f9722a3daafe3b4186f6b6457e0908390a3600380546001600160a01b0319169055565b6113fc611025611cfb565b6114375760405162461bcd60e51b8152600401808060200182810382526030815260200180612de26030913960400191505060405180910390fd5b6114438484848461218b565b600083815260096020526040902054611462908363ffffffff61222b16565b60009384526009602052604090932092909255505050565b611485611025611cfb565b6114c05760405162461bcd60e51b8152600401808060200182810382526030815260200180612de26030913960400191505060405180910390fd5b600680549091019055565b6114d361153f565b611524576040805162461bcd60e51b815260206004820181905260248201527f4f776e61626c653a2063616c6c6572206973206e6f7420746865206f776e6572604482015290519081900360640190fd5b61152d81612285565b50565b6003546001600160a01b031690565b6003546000906001600160a01b0316611556611cfb565b6001600160a01b031614905090565b60088054604080516020601f6002600019610100600188161502019095169490940493840181900481028201810190925282815260609390929091830182828015610f6a5780601f10610f3f57610100808354040283529160200191610f6a565b6115d1611025611cfb565b61160c5760405162461bcd60e51b8152600401808060200182810382526030815260200180612de26030913960400191505060405180910390fd5b61152d81612298565b611625611620611cfb565b6122e0565b565b3360008181526001602090815260408083206001600160a01b03871680855290835292819020805460ff1916861515908117909155815190815290519293927f17307eab39ab6107e8899845ad3d59bd9653f200f220920489ca2b5937696c31929181900390910190a35050565b600061101460048363ffffffff61232816565b6116b3611025611cfb565b6116ee5760405162461bcd60e51b8152600401808060200182810382526030815260200180612de26030913960400191505060405180910390fd5b60005b835181101561176c57600084828151811061170857fe5b60200260200101519050600084838151811061172057fe5b6020026020010151905061175081600960008581526020019081526020016000205461222b90919063ffffffff16565b60009283526009602052604090922091909155506001016116f1565b506117798484848461238f565b50505050565b60009081526009602052604090205490565b6006541490565b6001600160a01b03918216600090815260016020908152604080832093909416825291909152205460ff1690565b336001600160a01b03861614806117e257506117e28533611798565b61181d5760405162461bcd60e51b815260040180806020018281038252602a815260200180612d83602a913960400191505060405180910390fd5b6001600160a01b0384166118625760405162461bcd60e51b815260040180806020018281038252602b815260200180612d32602b913960400191505060405180910390fd5b61186e85858585612563565b611173858585858561264b565b61188361153f565b6118d4576040805162461bcd60e51b815260206004820181905260248201527f4f776e61626c653a2063616c6c6572206973206e6f7420746865206f776e6572604482015290519081900360640190fd5b61152d816127cd565b6118ee6118e8611cfb565b8461286e565b6119295760405162461bcd60e51b8152600401808060200182810382526030815260200180612e336030913960400191505060405180910390fd5b6001600160a01b03831660009081526020818152604080832085845290915290205461195b908263ffffffff61288816565b6001600160a01b03841660008181526020818152604080832087845282528083209490945583518681529081018590528351919333927fc3d58168c5ae7397731d063d5bbf3d657854427343f4c083240f7aacaa2d0f629281900390910190a4505050565b8051825114611a005760405162461bcd60e51b815260040180806020018281038252602f815260200180612fb9602f913960400191505060405180910390fd5b611a0b6118e8611cfb565b611a465760405162461bcd60e51b8152600401808060200182810382526030815260200180612e336030913960400191505060405180910390fd5b815160005b81811015611b1657611ac1838281518110611a6257fe5b6020026020010151600080886001600160a01b03166001600160a01b031681526020019081526020016000206000878581518110611a9c57fe5b602002602001015181526020019081526020016000205461288890919063ffffffff16565b600080876001600160a01b03166001600160a01b031681526020019081526020016000206000868481518110611af357fe5b602090810291909101810151825281019190915260400160002055600101611a4b565b5060006001600160a01b0316846001600160a01b0316336001600160a01b03167f4a39dc06d4c0dbc64b70af90fd698a233a518aa5d07e595d983b8c0526c8f7fb8686604051808060200180602001838103835285818151815260200191508051906020019060200280838360005b83811015611b9d578181015183820152602001611b85565b50505050905001838103825284818151815260200191508051906020019060200280838360005b83811015611bdc578181015183820152602001611bc4565b5050505090500194505050505060405180910390a450505050565b606081611c1c57506040805180820190915260018152600360fc1b6020820152610ed9565b8160005b8115611c3457600101600a82049150611c20565b6060816040519080825280601f01601f191660200182016040528015611c61576020820181803883390190505b50905060001982015b8515611caf57600a860660300160f81b82828060019003935081518110611c8d57fe5b60200101906001600160f81b031916908160001a905350600a86049550611c6a565b50949350505050565b6060611cf483836040518060200160405280600081525060405180602001604052806000815250604051806020016040528060008152506128ca565b9392505050565b3390565b8051825114611d3f5760405162461bcd60e51b8152600401808060200182810382526035815260200180612dad6035913960400191505060405180910390fd5b815160005b81811015611ea457611d95838281518110611d5b57fe5b6020026020010151600080896001600160a01b03166001600160a01b031681526020019081526020016000206000878581518110611a9c57fe5b600080886001600160a01b03166001600160a01b031681526020019081526020016000206000868481518110611dc757fe5b6020026020010151815260200190815260200160002081905550611e4f838281518110611df057fe5b6020026020010151600080886001600160a01b03166001600160a01b031681526020019081526020016000206000878581518110611e2a57fe5b602002602001015181526020019081526020016000205461222b90919063ffffffff16565b600080876001600160a01b03166001600160a01b031681526020019081526020016000206000868481518110611e8157fe5b602090810291909101810151825281019190915260400160002055600101611d44565b50836001600160a01b0316856001600160a01b0316336001600160a01b03167f4a39dc06d4c0dbc64b70af90fd698a233a518aa5d07e595d983b8c0526c8f7fb8686604051808060200180602001838103835285818151815260200191508051906020019060200280838360005b83811015611f2a578181015183820152602001611f12565b50505050905001838103825284818151815260200191508051906020019060200280838360005b83811015611f69578181015183820152602001611f51565b5050505090500194505050505060405180910390a45050505050565b611f97846001600160a01b0316612ade565b15611173576000846001600160a01b031663bc197c8133888787876040518663ffffffff1660e01b815260040180866001600160a01b03166001600160a01b03168152602001856001600160a01b03166001600160a01b03168152602001806020018060200180602001848103845287818151815260200191508051906020019060200280838360005b83811015612039578181015183820152602001612021565b50505050905001848103835286818151815260200191508051906020019060200280838360005b83811015612078578181015183820152602001612060565b50505050905001848103825285818151815260200191508051906020019080838360005b838110156120b457818101518382015260200161209c565b50505050905090810190601f1680156120e15780820380516001836020036101000a031916815260200191505b5098505050505050505050602060405180830381600087803b15801561210657600080fd5b505af115801561211a573d6000803e3d6000fd5b505050506040513d602081101561213057600080fd5b505190506001600160e01b0319811663bc197c8160e01b146121835760405162461bcd60e51b815260040180806020018281038252603f815260200180612f40603f913960400191505060405180910390fd5b505050505050565b6001600160a01b0384166000908152602081815260408083208684529091529020546121bd908363ffffffff61222b16565b6001600160a01b038516600081815260208181526040808320888452825280832094909455835187815290810186905283519293919233927fc3d58168c5ae7397731d063d5bbf3d657854427343f4c083240f7aacaa2d0f62928290030190a461177960008585858561264b565b600082820183811015611cf4576040805162461bcd60e51b815260206004820152601b60248201527f536166654d6174683a206164646974696f6e206f766572666c6f770000000000604482015290519081900360640190fd5b8051611099906002906020840190612c99565b6122a960048263ffffffff612b1a16565b6040516001600160a01b038216907f6ae172837ea30b801fbfcdd4108aa1d5bf8ff775444fd70256b44e6bf3dfc3f690600090a250565b6122f160048263ffffffff612b9b16565b6040516001600160a01b038216907fe94479a9f7e1952cc78f2d6baab678adc1b772d936c6583def489e524cb6669290600090a250565b60006001600160a01b03821661236f5760405162461bcd60e51b8152600401808060200182810382526022815260200180612e936022913960400191505060405180910390fd5b506001600160a01b03166000908152602091909152604090205460ff1690565b81518351146123cf5760405162461bcd60e51b8152600401808060200182810382526030815260200180612f106030913960400191505060405180910390fd5b825160005b8181101561247a576124258482815181106123eb57fe5b6020026020010151600080896001600160a01b03166001600160a01b031681526020019081526020016000206000888581518110611e2a57fe5b600080886001600160a01b03166001600160a01b03168152602001908152602001600020600087848151811061245757fe5b6020908102919091018101518252810191909152604001600020556001016123d4565b50846001600160a01b031660006001600160a01b0316336001600160a01b03167f4a39dc06d4c0dbc64b70af90fd698a233a518aa5d07e595d983b8c0526c8f7fb8787604051808060200180602001838103835285818151815260200191508051906020019060200280838360005b838110156125015781810151838201526020016124e9565b50505050905001838103825284818151815260200191508051906020019060200280838360005b83811015612540578181015183820152602001612528565b5050505090500194505050505060405180910390a4611173600086868686611f85565b6001600160a01b038416600090815260208181526040808320858452909152902054612595908263ffffffff61288816565b6001600160a01b03808616600090815260208181526040808320878452825280832094909455918616815280825282812085825290915220546125de908263ffffffff61222b16565b6001600160a01b03808516600081815260208181526040808320888452825291829020949094558051868152938401859052805191939288169233927fc3d58168c5ae7397731d063d5bbf3d657854427343f4c083240f7aacaa2d0f62929181900390910190a450505050565b61265d846001600160a01b0316612ade565b15611173576000846001600160a01b031663f23a6e6133888787876040518663ffffffff1660e01b815260040180866001600160a01b03166001600160a01b03168152602001856001600160a01b03166001600160a01b0316815260200184815260200183815260200180602001828103825283818151815260200191508051906020019080838360005b838110156127005781810151838201526020016126e8565b50505050905090810190601f16801561272d5780820380516001836020036101000a031916815260200191505b509650505050505050602060405180830381600087803b15801561275057600080fd5b505af1158015612764573d6000803e3d6000fd5b505050506040513d602081101561277a57600080fd5b505190506001600160e01b0319811663f23a6e6160e01b146121835760405162461bcd60e51b815260040180806020018281038252603a815260200180612f7f603a913960400191505060405180910390fd5b6001600160a01b0381166128125760405162461bcd60e51b8152600401808060200182810382526026815260200180612d5d6026913960400191505060405180910390fd5b6003546040516001600160a01b038084169216907f8be0079c531659141344cd1fd0a4f28419497f9722a3daafe3b4186f6b6457e090600090a3600380546001600160a01b0319166001600160a01b0392909216919091179055565b600061287861153f565b80611cf45750611cf48284611798565b6000611cf483836040518060400160405280601e81526020017f536166654d6174683a207375627472616374696f6e206f766572666c6f770000815250612c02565b6060808690506060869050606086905060608690506060869050606081518351855187518951010101016040519080825280601f01601f19166020018201604052801561291e576020820181803883390190505b509050806000805b88518110156129775788818151811061293b57fe5b602001015160f81c60f81b83838060010194508151811061295857fe5b60200101906001600160f81b031916908160001a905350600101612926565b5060005b87518110156129cc5787818151811061299057fe5b602001015160f81c60f81b8383806001019450815181106129ad57fe5b60200101906001600160f81b031916908160001a90535060010161297b565b5060005b8651811015612a21578681815181106129e557fe5b602001015160f81c60f81b838380600101945081518110612a0257fe5b60200101906001600160f81b031916908160001a9053506001016129d0565b5060005b8551811015612a7657858181518110612a3a57fe5b602001015160f81c60f81b838380600101945081518110612a5757fe5b60200101906001600160f81b031916908160001a905350600101612a25565b5060005b8451811015612acb57848181518110612a8f57fe5b602001015160f81c60f81b838380600101945081518110612aac57fe5b60200101906001600160f81b031916908160001a905350600101612a7a565b50909d9c50505050505050505050505050565b6000813f7fc5d2460186f7233c927e7db2dcc703c0e500b653ca82273b7bfad8045d85a470818114801590612b1257508115155b949350505050565b612b248282612328565b15612b76576040805162461bcd60e51b815260206004820152601f60248201527f526f6c65733a206163636f756e7420616c72656164792068617320726f6c6500604482015290519081900360640190fd5b6001600160a01b0316600090815260209190915260409020805460ff19166001179055565b612ba58282612328565b612be05760405162461bcd60e51b8152600401808060200182810382526021815260200180612e126021913960400191505060405180910390fd5b6001600160a01b0316600090815260209190915260409020805460ff19169055565b60008184841115612c915760405162461bcd60e51b81526004018080602001828103825283818151815260200191508051906020019080838360005b83811015612c56578181015183820152602001612c3e565b50505050905090810190601f168015612c835780820380516001836020036101000a031916815260200191505b509250505060405180910390fd5b505050900390565b828054600181600116156101000203166002900490600052602060002090601f016020900481019282601f10612cda57805160ff1916838001178555612d07565b82800160010185558215612d07579182015b82811115612d07578251825591602001919060010190612cec565b50612d13929150612d17565b5090565b610f7291905b80821115612d135760008155600101612d1d56fe4552433131353523736166655472616e7366657246726f6d3a20494e56414c49445f524543495049454e544f776e61626c653a206e6577206f776e657220697320746865207a65726f20616464726573734552433131353523736166655472616e7366657246726f6d3a20494e56414c49445f4f50455241544f5245524331313535235f7361666542617463685472616e7366657246726f6d3a20494e56414c49445f4152524159535f4c454e4754484d696e746572526f6c653a2063616c6c657220646f6573206e6f74206861766520746865204d696e74657220726f6c65526f6c65733a206163636f756e7420646f6573206e6f74206861766520726f6c65427269646765644e4654313135353a2063616c6c6572206973206e6f74206f776e6572206e6f7220617070726f76656445524331313535237361666542617463685472616e7366657246726f6d3a20494e56414c49445f524543495049454e54526f6c65733a206163636f756e7420697320746865207a65726f2061646472657373455243313135352362616c616e63654f6642617463683a20494e56414c49445f41525241595f4c454e47544845524331313535237361666542617463685472616e7366657246726f6d3a20494e56414c49445f4f50455241544f52455243313135354d696e744275726e2362617463684d696e743a20494e56414c49445f4152524159535f4c454e47544845524331313535235f63616c6c6f6e45524331313535426174636852656365697665643a20494e56414c49445f4f4e5f524543454956455f4d45535341474545524331313535235f63616c6c6f6e4552433131353552656365697665643a20494e56414c49445f4f4e5f524543454956455f4d455353414745427269646765644e4654313135352362617463684275726e3a20494e56414c49445f4152524159535f4c454e475448a265627a7a7231582020500f35e5073600c03331d2463f8e3a7ae8ff4af22a737c1ba74a69b03473b264736f6c63430005110032526f6c65733a206163636f756e7420697320746865207a65726f2061646472657373546f6b656e4d616e616765722f657468546f6b656e416464722069732061207a65726f20616464726573734f776e61626c653a206e6577206f776e657220697320746865207a65726f2061646472657373546f6b656e4d616e616765722f657468546f6b656e2069732061207a65726f2061646472657373546f6b656e4d616e616765722f657468546f6b656e20616c7265616479206d6170706564546f6b656e4d616e616765722f63616e6e6f742064656e7920746865206f776e6572546f6b656e4d616e616765722f657468546f6b656e206d617070696e6720646f6573206e6f74206578697374734f776e61626c653a2063616c6c6572206973206e6f7420746865206f776e6572546f6b656e4d616e616765722f657468546f6b656e4164647220616c7265616479206d6170706564546f6b656e4d616e616765722f72656d6f766520686173206e6f6e2d7a65726f20737570706c79a265627a7a723158209931f38bc54e70a5edc027fcdccbafeb9073e989d44a709dd90bdb18086c78df64736f6c63430005110032",
  "source": "pragma solidity 0.5.17;\n\nimport \"@openzeppelin/contracts/ownership/Ownable.sol\";\nimport \"./Bridged1155Token.sol\";\n\ncontract HRC1155TokenManager is Ownable {\n    // ethtoken to onetoken mapping\n    mapping(address => address) public mappedTokens;\n\n    event TokenMapAck(address indexed tokenReq, address indexed tokenAck);\n\n    mapping(address => uint256) public wards;\n\n    function rely(address guy) external onlyOwner {\n        wards[guy] = 1;\n    }\n\n    function deny(address guy) external onlyOwner {\n        require(guy != owner(), \"TokenManager/cannot deny the owner\");\n        wards[guy] = 0;\n    }\n\n    // both owner and admin must approve\n    modifier auth {\n        require(wards[msg.sender] == 1, \"TokenManager/not-authorized\");\n        _;\n    }\n\n    /**\n     * @dev map ethereum token to harmony token and emit mintAddress\n     * @param ethTokenAddr address of the ethereum token\n     * @param name name of the token\n     * @param symbol of the token\n     * @param baseURI of the token\n     * @return mintAddress of the mapped token\n     */\n    function addHRC1155Token(\n        address ethTokenAddr,\n        string memory name,\n        string memory symbol,\n        string memory baseURI\n    ) public auth returns (address) {\n        require(\n            ethTokenAddr != address(0),\n            \"TokenManager/ethToken is a zero address\"\n        );\n        require(\n            mappedTokens[ethTokenAddr] == address(0),\n            \"TokenManager/ethToken already mapped\"\n        );\n\n        Bridged1155Token bridgedToken = new Bridged1155Token(\n            ethTokenAddr,\n            name,\n            symbol,\n            baseURI\n        );\n        address bridgedTokenAddr = address(bridgedToken);\n\n        // store the mapping and created address\n        mappedTokens[ethTokenAddr] = bridgedTokenAddr;\n\n        // assign minter role to the caller\n        bridgedToken.addMinter(msg.sender);\n\n        emit TokenMapAck(ethTokenAddr, bridgedTokenAddr);\n        return bridgedTokenAddr;\n    }\n\n    /**\n     * @dev register an ethereum token to harmony token mapping\n     * @param ethTokenAddr address of the ethereum token\n     * @return oneToken of the mapped harmony token\n     */\n    function registerToken(address ethTokenAddr, address oneTokenAddr)\n    public\n    auth\n    returns (bool)\n    {\n        require(\n            ethTokenAddr != address(0),\n            \"TokenManager/ethTokenAddr is a zero address\"\n        );\n        require(\n            mappedTokens[ethTokenAddr] == address(0),\n            \"TokenManager/ethTokenAddr already mapped\"\n        );\n\n        // store the mapping and created address\n        mappedTokens[ethTokenAddr] = oneTokenAddr;\n\n        return true;\n    }\n\n    /**\n     * @dev remove an existing token mapping\n     * @param ethTokenAddr address of the ethereum token\n     * @param supply only allow removing mapping when supply, e.g., zero or 10**27\n     */\n    function removeHRC1155Token(address ethTokenAddr, uint256 supply) public auth {\n        require(\n            mappedTokens[ethTokenAddr] != address(0),\n            \"TokenManager/ethToken mapping does not exists\"\n        );\n        require(\n            Bridged1155Token(mappedTokens[ethTokenAddr]).checkSupply(supply),\n            \"TokenManager/remove has non-zero supply\"\n        );\n        delete mappedTokens[ethTokenAddr];\n    }\n}\n",
  "sourcePath": "/home/lutty/workspace/Web/WebstormProjects/ethhmy-bridge/contracts/lib/HRC1155TokenManager.sol",
  "compiler": {
    "name": "solc",
    "version": "0.5.17+commit.d19bba13.Emscripten.clang"
  },
  "schemaVersion": "3.4.3",
  "updatedAt": "2021-10-26T06:44:53.892Z",
  "devdoc": {
    "methods": {
      "addHRC1155Token(address,string,string,string)": {
        "details": "map ethereum token to harmony token and emit mintAddress",
        "params": {
          "baseURI": "of the token",
          "ethTokenAddr": "address of the ethereum token",
          "name": "name of the token",
          "symbol": "of the token"
        },
        "return": "mintAddress of the mapped token"
      },
      "isOwner()": {
        "details": "Returns true if the caller is the current owner."
      },
      "owner()": {
        "details": "Returns the address of the current owner."
      },
      "registerToken(address,address)": {
        "details": "register an ethereum token to harmony token mapping",
        "params": {
          "ethTokenAddr": "address of the ethereum token"
        },
        "return": "oneToken of the mapped harmony token"
      },
      "removeHRC1155Token(address,uint256)": {
        "details": "remove an existing token mapping",
        "params": {
          "ethTokenAddr": "address of the ethereum token",
          "supply": "only allow removing mapping when supply, e.g., zero or 10**27"
        }
      },
      "renounceOwnership()": {
        "details": "Leaves the contract without owner. It will not be possible to call `onlyOwner` functions anymore. Can only be called by the current owner.     * NOTE: Renouncing ownership will leave the contract without an owner, thereby removing any functionality that is only available to the owner."
      },
      "transferOwnership(address)": {
        "details": "Transfers ownership of the contract to a new account (`newOwner`). Can only be called by the current owner."
      }
    }
  },
  "userdoc": {
    "methods": {}
  }
}