{
  "contractName": "LINKEthManager",
  "abi": [
    {
      "inputs": [
        {
          "internalType": "contract ILINK",
          "name": "link",
          "type": "address"
        },
        {
          "internalType": "address",
          "name": "_wallet",
          "type": "address"
        }
      ],
      "payable": false,
      "stateMutability": "nonpayable",
      "type": "constructor"
    },
    {
      "anonymous": false,
      "inputs": [
        {
          "indexed": true,
          "internalType": "address",
          "name": "token",
          "type": "address"
        },
        {
          "indexed": true,
          "internalType": "address",
          "name": "sender",
          "type": "address"
        },
        {
          "indexed": false,
          "internalType": "uint256",
          "name": "amount",
          "type": "uint256"
        },
        {
          "indexed": false,
          "internalType": "address",
          "name": "recipient",
          "type": "address"
        }
      ],
      "name": "Locked",
      "type": "event"
    },
    {
      "anonymous": false,
      "inputs": [
        {
          "indexed": false,
          "internalType": "address",
          "name": "ethToken",
          "type": "address"
        },
        {
          "indexed": false,
          "internalType": "uint256",
          "name": "amount",
          "type": "uint256"
        },
        {
          "indexed": false,
          "internalType": "address",
          "name": "recipient",
          "type": "address"
        },
        {
          "indexed": false,
          "internalType": "bytes32",
          "name": "receiptId",
          "type": "bytes32"
        }
      ],
      "name": "Unlocked",
      "type": "event"
    },
    {
      "constant": true,
      "inputs": [],
      "name": "link_",
      "outputs": [
        {
          "internalType": "contract ILINK",
          "name": "",
          "type": "address"
        }
      ],
      "payable": false,
      "stateMutability": "view",
      "type": "function"
    },
    {
      "constant": true,
      "inputs": [
        {
          "internalType": "bytes32",
          "name": "",
          "type": "bytes32"
        }
      ],
      "name": "usedEvents_",
      "outputs": [
        {
          "internalType": "bool",
          "name": "",
          "type": "bool"
        }
      ],
      "payable": false,
      "stateMutability": "view",
      "type": "function"
    },
    {
      "constant": true,
      "inputs": [],
      "name": "wallet",
      "outputs": [
        {
          "internalType": "address",
          "name": "",
          "type": "address"
        }
      ],
      "payable": false,
      "stateMutability": "view",
      "type": "function"
    },
    {
      "constant": false,
      "inputs": [
        {
          "internalType": "uint256",
          "name": "amount",
          "type": "uint256"
        },
        {
          "internalType": "address",
          "name": "recipient",
          "type": "address"
        }
      ],
      "name": "lockToken",
      "outputs": [],
      "payable": false,
      "stateMutability": "nonpayable",
      "type": "function"
    },
    {
      "constant": false,
      "inputs": [
        {
          "internalType": "address",
          "name": "userAddr",
          "type": "address"
        },
        {
          "internalType": "uint256",
          "name": "amount",
          "type": "uint256"
        },
        {
          "internalType": "address",
          "name": "recipient",
          "type": "address"
        }
      ],
      "name": "lockTokenFor",
      "outputs": [],
      "payable": false,
      "stateMutability": "nonpayable",
      "type": "function"
    },
    {
      "constant": false,
      "inputs": [
        {
          "internalType": "uint256",
          "name": "amount",
          "type": "uint256"
        },
        {
          "internalType": "address",
          "name": "recipient",
          "type": "address"
        },
        {
          "internalType": "bytes32",
          "name": "receiptId",
          "type": "bytes32"
        }
      ],
      "name": "unlockToken",
      "outputs": [],
      "payable": false,
      "stateMutability": "nonpayable",
      "type": "function"
    }
  ],
  "bytecode": "0x608060405234801561001057600080fd5b50604051610b53380380610b538339818101604052604081101561003357600080fd5b508051602090910151600080546001600160a01b039384166001600160a01b03199182161790915560028054939092169216919091179055610ad98061007a6000396000f3fe608060405234801561001057600080fd5b50600436106100625760003560e01c8063521eb273146100675780635ed741141461008b578063713d9aca146100bf578063bccc9fcf146100f5578063cec1460b14610126578063d6d34ad614610152575b600080fd5b61006f61015a565b604080516001600160a01b039092168252519081900360200190f35b6100bd600480360360608110156100a157600080fd5b508035906001600160a01b036020820135169060400135610169565b005b6100bd600480360360608110156100d557600080fd5b506001600160a01b03813581169160208101359160409091013516610357565b6101126004803603602081101561010b57600080fd5b5035610685565b604080519115158252519081900360200190f35b6100bd6004803603604081101561013c57600080fd5b50803590602001356001600160a01b031661069a565b61006f610965565b6002546001600160a01b031681565b6002546001600160a01b031633146101c4576040805162461bcd60e51b8152602060048201526019602482015278121b5e53585b9859d95c8bdb9bdd0b585d5d1a1bdc9a5e9959603a1b604482015290519081900360640190fd5b60008181526001602052604090205460ff16156102125760405162461bcd60e51b815260040180806020018281038252602a815260200180610a55602a913960400191505060405180910390fd5b6000818152600160208181526040808420805460ff19169093179092558254825163a9059cbb60e01b81526001600160a01b038781166004830152602482018990529351939091169363a9059cbb93604480840194939192918390030190829087803b15801561028157600080fd5b505af1158015610295573d6000803e3d6000fd5b505050506040513d60208110156102ab57600080fd5b50516102fe576040805162461bcd60e51b815260206004820152601860248201527f4574684d616e616765722f756e6c6f636b206661696c65640000000000000000604482015290519081900360640190fd5b600054604080516001600160a01b039283168152602081018690529184168282015260608201839052517fb24e65d2501e29a3ce014b0cc2283699c081ad27f10d64f036f96912b6f8943e9181900360800190a1505050565b6002546001600160a01b031633146103b2576040805162461bcd60e51b8152602060048201526019602482015278121b5e53585b9859d95c8bdb9bdd0b585d5d1a1bdc9a5e9959603a1b604482015290519081900360640190fd5b6001600160a01b0381166103f75760405162461bcd60e51b8152600401808060200182810382526026815260200180610a7f6026913960400191505060405180910390fd5b6000821161044c576040805162461bcd60e51b815260206004820152601c60248201527f4574684d616e616765722f7a65726f20746f6b656e206c6f636b656400000000604482015290519081900360640190fd5b60008054604080516370a0823160e01b81526001600160a01b038781166004830152915191909216916370a0823191602480830192602092919082900301818787803b15801561049b57600080fd5b505af11580156104af573d6000803e3d6000fd5b505050506040513d60208110156104c557600080fd5b505160008054604080516323b872dd60e01b81526001600160a01b0389811660048301523060248301526044820189905291519495509116926323b872dd92606480840193602093929083900390910190829087803b15801561052757600080fd5b505af115801561053b573d6000803e3d6000fd5b505050506040513d602081101561055157600080fd5b505161059d576040805162461bcd60e51b8152602060048201526016602482015275115d1a13585b9859d95c8bdb1bd8dac819985a5b195960521b604482015290519081900360640190fd5b60008054604080516370a0823160e01b81526001600160a01b038881166004830152915191909216916370a0823191602480830192602092919082900301818787803b1580156105ec57600080fd5b505af1158015610600573d6000803e3d6000fd5b505050506040513d602081101561061657600080fd5b50519050600061062c838363ffffffff61097416565b600054604080518381526001600160a01b0388811660208301528251949550808b16949316927f4c6ab40ee4cfa212a441d32ee2897945b4a52461284f9369e23fdf8faa6cdd69929181900390910190a3505050505050565b60016020526000908152604090205460ff1681565b6001600160a01b0381166106df5760405162461bcd60e51b8152600401808060200182810382526026815260200180610a7f6026913960400191505060405180910390fd5b60008211610734576040805162461bcd60e51b815260206004820152601c60248201527f4574684d616e616765722f7a65726f20746f6b656e206c6f636b656400000000604482015290519081900360640190fd5b60008054604080516370a0823160e01b815233600482015290516001600160a01b03909216916370a082319160248082019260209290919082900301818787803b15801561078157600080fd5b505af1158015610795573d6000803e3d6000fd5b505050506040513d60208110156107ab57600080fd5b505160008054604080516323b872dd60e01b81523360048201523060248201526044810188905290519394506001600160a01b03909116926323b872dd92606480840193602093929083900390910190829087803b15801561080c57600080fd5b505af1158015610820573d6000803e3d6000fd5b505050506040513d602081101561083657600080fd5b5051610882576040805162461bcd60e51b8152602060048201526016602482015275115d1a13585b9859d95c8bdb1bd8dac819985a5b195960521b604482015290519081900360640190fd5b60008054604080516370a0823160e01b815233600482015290516001600160a01b03909216916370a082319160248082019260209290919082900301818787803b1580156108cf57600080fd5b505af11580156108e3573d6000803e3d6000fd5b505050506040513d60208110156108f957600080fd5b50519050600061090f838363ffffffff61097416565b600054604080518381526001600160a01b038881166020830152825194955033949316927f4c6ab40ee4cfa212a441d32ee2897945b4a52461284f9369e23fdf8faa6cdd69929181900390910190a35050505050565b6000546001600160a01b031681565b60006109b683836040518060400160405280601e81526020017f536166654d6174683a207375627472616374696f6e206f766572666c6f7700008152506109bd565b9392505050565b60008184841115610a4c5760405162461bcd60e51b81526004018080602001828103825283818151815260200191508051906020019080838360005b83811015610a115781810151838201526020016109f9565b50505050905090810190601f168015610a3e5780820380516001836020036101000a031916815260200191505b509250505060405180910390fd5b50505090039056fe4574684d616e616765722f546865206275726e206576656e742063616e6e6f74206265207265757365644574684d616e616765722f726563697069656e742069732061207a65726f2061646472657373a265627a7a72315820a13e948c5f7b2a7838607842a238e0725b73279f0b742bdd018db908c139aaa164736f6c63430005110032",
  "source": "pragma solidity 0.5.17;\n\nimport \"./ILINK.sol\";\nimport \"@openzeppelin/contracts/math/SafeMath.sol\";\n\ncontract LINKEthManager {\n    using SafeMath for uint256;\n\n    ILINK public link_;\n\n    mapping(bytes32 => bool) public usedEvents_;\n\n    event Locked(\n        address indexed token,\n        address indexed sender,\n        uint256 amount,\n        address recipient\n    );\n\n    event Unlocked(\n        address ethToken,\n        uint256 amount,\n        address recipient,\n        bytes32 receiptId\n    );\n\n    address public wallet;\n    modifier onlyWallet {\n        require(msg.sender == wallet, \"HmyManager/not-authorized\");\n        _;\n    }\n\n    /**\n     * @dev constructor\n     * @param link token contract address, e.g., erc20 contract\n     * @param _wallet is the multisig wallet\n     */\n    constructor(ILINK link, address _wallet) public {\n        link_ = link;\n        wallet = _wallet;\n    }\n\n    /**\n     * @dev lock tokens to be minted on harmony chain\n     * @param amount amount of tokens to lock\n     * @param recipient recipient address on the harmony chain\n     */\n    function lockToken(uint256 amount, address recipient) public {\n        require(\n            recipient != address(0),\n            \"EthManager/recipient is a zero address\"\n        );\n        require(amount > 0, \"EthManager/zero token locked\");\n        uint256 _balanceBefore = link_.balanceOf(msg.sender);\n        require(\n            link_.transferFrom(msg.sender, address(this), amount),\n            \"EthManager/lock failed\"\n        );\n        uint256 _balanceAfter = link_.balanceOf(msg.sender);\n        uint256 _actualAmount = _balanceBefore.sub(_balanceAfter);\n        emit Locked(address(link_), msg.sender, _actualAmount, recipient);\n    }\n\n    /**\n     * @dev lock tokens for an user address to be minted on harmony chain\n     * @param amount amount of tokens to lock\n     * @param recipient recipient address on the harmony chain\n     */\n    function lockTokenFor(\n        address userAddr,\n        uint256 amount,\n        address recipient\n    ) public onlyWallet {\n        require(\n            recipient != address(0),\n            \"EthManager/recipient is a zero address\"\n        );\n        require(amount > 0, \"EthManager/zero token locked\");\n        uint256 _balanceBefore = link_.balanceOf(userAddr);\n        require(\n            link_.transferFrom(userAddr, address(this), amount),\n            \"EthManager/lock failed\"\n        );\n        uint256 _balanceAfter = link_.balanceOf(userAddr);\n        uint256 _actualAmount = _balanceBefore.sub(_balanceAfter);\n        emit Locked(address(link_), userAddr, _actualAmount, recipient);\n    }\n\n    /**\n     * @dev unlock tokens after burning them on harmony chain\n     * @param amount amount of unlock tokens\n     * @param recipient recipient of the unlock tokens\n     * @param receiptId transaction hash of the burn event on harmony chain\n     */\n    function unlockToken(\n        uint256 amount,\n        address recipient,\n        bytes32 receiptId\n    ) public onlyWallet {\n        require(\n            !usedEvents_[receiptId],\n            \"EthManager/The burn event cannot be reused\"\n        );\n        usedEvents_[receiptId] = true;\n        require(link_.transfer(recipient, amount), \"EthManager/unlock failed\");\n        emit Unlocked(address(link_), amount, recipient, receiptId);\n    }\n}\n",
  "sourcePath": "/Users/gupadhyaya/go/src/github.com/harmony-one/ethhmy-bridge/contracts/link/LINKEthManager.sol",
  "compiler": {
    "name": "solc",
    "version": "0.5.17+commit.d19bba13.Emscripten.clang"
  },
  "schemaVersion": "3.2.1",
  "updatedAt": "2020-09-24T03:46:59.285Z",
  "devdoc": {
    "methods": {
      "constructor": {
        "details": "constructor",
        "params": {
          "_wallet": "is the multisig wallet",
          "link": "token contract address, e.g., erc20 contract"
        }
      },
      "lockToken(uint256,address)": {
        "details": "lock tokens to be minted on harmony chain",
        "params": {
          "amount": "amount of tokens to lock",
          "recipient": "recipient address on the harmony chain"
        }
      },
      "lockTokenFor(address,uint256,address)": {
        "details": "lock tokens for an user address to be minted on harmony chain",
        "params": {
          "amount": "amount of tokens to lock",
          "recipient": "recipient address on the harmony chain"
        }
      },
      "unlockToken(uint256,address,bytes32)": {
        "details": "unlock tokens after burning them on harmony chain",
        "params": {
          "amount": "amount of unlock tokens",
          "receiptId": "transaction hash of the burn event on harmony chain",
          "recipient": "recipient of the unlock tokens"
        }
      }
    }
  },
  "userdoc": {
    "methods": {}
  }
}