{
  "contractName": "MyERC1155",
  "abi": [
    {
      "inputs": [
        {
          "internalType": "string",
          "name": "name",
          "type": "string"
        },
        {
          "internalType": "string",
          "name": "symbol",
          "type": "string"
        },
        {
          "internalType": "string",
          "name": "uri",
          "type": "string"
        }
      ],
      "payable": false,
      "stateMutability": "nonpayable",
      "type": "constructor"
    },
    {
      "anonymous": false,
      "inputs": [
        {
          "indexed": true,
          "internalType": "address",
          "name": "_owner",
          "type": "address"
        },
        {
          "indexed": true,
          "internalType": "address",
          "name": "_operator",
          "type": "address"
        },
        {
          "indexed": false,
          "internalType": "bool",
          "name": "_approved",
          "type": "bool"
        }
      ],
      "name": "ApprovalForAll",
      "type": "event"
    },
    {
      "anonymous": false,
      "inputs": [
        {
          "indexed": true,
          "internalType": "address",
          "name": "_operator",
          "type": "address"
        },
        {
          "indexed": true,
          "internalType": "address",
          "name": "_from",
          "type": "address"
        },
        {
          "indexed": true,
          "internalType": "address",
          "name": "_to",
          "type": "address"
        },
        {
          "indexed": false,
          "internalType": "uint256[]",
          "name": "_ids",
          "type": "uint256[]"
        },
        {
          "indexed": false,
          "internalType": "uint256[]",
          "name": "_amounts",
          "type": "uint256[]"
        }
      ],
      "name": "TransferBatch",
      "type": "event"
    },
    {
      "anonymous": false,
      "inputs": [
        {
          "indexed": true,
          "internalType": "address",
          "name": "_operator",
          "type": "address"
        },
        {
          "indexed": true,
          "internalType": "address",
          "name": "_from",
          "type": "address"
        },
        {
          "indexed": true,
          "internalType": "address",
          "name": "_to",
          "type": "address"
        },
        {
          "indexed": false,
          "internalType": "uint256",
          "name": "_id",
          "type": "uint256"
        },
        {
          "indexed": false,
          "internalType": "uint256",
          "name": "_amount",
          "type": "uint256"
        }
      ],
      "name": "TransferSingle",
      "type": "event"
    },
    {
      "anonymous": false,
      "inputs": [
        {
          "indexed": false,
          "internalType": "string",
          "name": "_uri",
          "type": "string"
        },
        {
          "indexed": true,
          "internalType": "uint256",
          "name": "_id",
          "type": "uint256"
        }
      ],
      "name": "URI",
      "type": "event"
    },
    {
      "constant": true,
      "inputs": [
        {
          "internalType": "address",
          "name": "_owner",
          "type": "address"
        },
        {
          "internalType": "uint256",
          "name": "_id",
          "type": "uint256"
        }
      ],
      "name": "balanceOf",
      "outputs": [
        {
          "internalType": "uint256",
          "name": "",
          "type": "uint256"
        }
      ],
      "payable": false,
      "stateMutability": "view",
      "type": "function"
    },
    {
      "constant": true,
      "inputs": [
        {
          "internalType": "address[]",
          "name": "_owners",
          "type": "address[]"
        },
        {
          "internalType": "uint256[]",
          "name": "_ids",
          "type": "uint256[]"
        }
      ],
      "name": "balanceOfBatch",
      "outputs": [
        {
          "internalType": "uint256[]",
          "name": "",
          "type": "uint256[]"
        }
      ],
      "payable": false,
      "stateMutability": "view",
      "type": "function"
    },
    {
      "constant": true,
      "inputs": [
        {
          "internalType": "address",
          "name": "_owner",
          "type": "address"
        },
        {
          "internalType": "address",
          "name": "_operator",
          "type": "address"
        }
      ],
      "name": "isApprovedForAll",
      "outputs": [
        {
          "internalType": "bool",
          "name": "isOperator",
          "type": "bool"
        }
      ],
      "payable": false,
      "stateMutability": "view",
      "type": "function"
    },
    {
      "constant": false,
      "inputs": [
        {
          "internalType": "address",
          "name": "_from",
          "type": "address"
        },
        {
          "internalType": "address",
          "name": "_to",
          "type": "address"
        },
        {
          "internalType": "uint256[]",
          "name": "_ids",
          "type": "uint256[]"
        },
        {
          "internalType": "uint256[]",
          "name": "_amounts",
          "type": "uint256[]"
        },
        {
          "internalType": "bytes",
          "name": "_data",
          "type": "bytes"
        }
      ],
      "name": "safeBatchTransferFrom",
      "outputs": [],
      "payable": false,
      "stateMutability": "nonpayable",
      "type": "function"
    },
    {
      "constant": false,
      "inputs": [
        {
          "internalType": "address",
          "name": "_from",
          "type": "address"
        },
        {
          "internalType": "address",
          "name": "_to",
          "type": "address"
        },
        {
          "internalType": "uint256",
          "name": "_id",
          "type": "uint256"
        },
        {
          "internalType": "uint256",
          "name": "_amount",
          "type": "uint256"
        },
        {
          "internalType": "bytes",
          "name": "_data",
          "type": "bytes"
        }
      ],
      "name": "safeTransferFrom",
      "outputs": [],
      "payable": false,
      "stateMutability": "nonpayable",
      "type": "function"
    },
    {
      "constant": false,
      "inputs": [
        {
          "internalType": "address",
          "name": "_operator",
          "type": "address"
        },
        {
          "internalType": "bool",
          "name": "_approved",
          "type": "bool"
        }
      ],
      "name": "setApprovalForAll",
      "outputs": [],
      "payable": false,
      "stateMutability": "nonpayable",
      "type": "function"
    },
    {
      "constant": true,
      "inputs": [
        {
          "internalType": "bytes4",
          "name": "_interfaceID",
          "type": "bytes4"
        }
      ],
      "name": "supportsInterface",
      "outputs": [
        {
          "internalType": "bool",
          "name": "",
          "type": "bool"
        }
      ],
      "payable": false,
      "stateMutability": "view",
      "type": "function"
    },
    {
      "constant": true,
      "inputs": [
        {
          "internalType": "uint256",
          "name": "_id",
          "type": "uint256"
        }
      ],
      "name": "uri",
      "outputs": [
        {
          "internalType": "string",
          "name": "",
          "type": "string"
        }
      ],
      "payable": false,
      "stateMutability": "view",
      "type": "function"
    },
    {
      "constant": true,
      "inputs": [],
      "name": "name",
      "outputs": [
        {
          "internalType": "string",
          "name": "",
          "type": "string"
        }
      ],
      "payable": false,
      "stateMutability": "view",
      "type": "function"
    },
    {
      "constant": true,
      "inputs": [],
      "name": "symbol",
      "outputs": [
        {
          "internalType": "string",
          "name": "",
          "type": "string"
        }
      ],
      "payable": false,
      "stateMutability": "view",
      "type": "function"
    }
  ],
  "bytecode": "0x60806040523480156200001157600080fd5b50604051620019ea380380620019ea833981810160405260608110156200003757600080fd5b81019080805160405193929190846401000000008211156200005857600080fd5b9083019060208201858111156200006e57600080fd5b82516401000000008111828201881017156200008957600080fd5b82525081516020918201929091019080838360005b83811015620000b85781810151838201526020016200009e565b50505050905090810190601f168015620000e65780820380516001836020036101000a031916815260200191505b50604052602001805160405193929190846401000000008211156200010a57600080fd5b9083019060208201858111156200012057600080fd5b82516401000000008111828201881017156200013b57600080fd5b82525081516020918201929091019080838360005b838110156200016a57818101518382015260200162000150565b50505050905090810190601f168015620001985780820380516001836020036101000a031916815260200191505b5060405260200180516040519392919084640100000000821115620001bc57600080fd5b908301906020820185811115620001d257600080fd5b8251640100000000811182820188101715620001ed57600080fd5b82525081516020918201929091019080838360005b838110156200021c57818101518382015260200162000202565b50505050905090810190601f1680156200024a5780820380516001836020036101000a031916815260200191505b50604052505083516200026691506003906020860190620002b3565b5081516200027c906004906020850190620002b3565b5062000291816001600160e01b036200029a16565b50505062000358565b8051620002af906002906020840190620002b3565b5050565b828054600181600116156101000203166002900490600052602060002090601f016020900481019282601f10620002f657805160ff191683800117855562000326565b8280016001018555821562000326579182015b828111156200032657825182559160200191906001019062000309565b506200033492915062000338565b5090565b6200035591905b808211156200033457600081556001016200033f565b90565b61168280620003686000396000f3fe608060405234801561001057600080fd5b506004361061009d5760003560e01c80634e1273f4116100665780634e1273f41461037857806395d89b41146104eb578063a22cb465146104f3578063e985e9c514610521578063f242432a1461054f5761009d565b8062fdd58e146100a257806301ffc9a7146100e057806306fdde031461011b5780630e89341c146101985780632eb2c2d6146101b5575b600080fd5b6100ce600480360360408110156100b857600080fd5b506001600160a01b038135169060200135610618565b60408051918252519081900360200190f35b610107600480360360208110156100f657600080fd5b50356001600160e01b03191661063e565b604080519115158252519081900360200190f35b610123610685565b6040805160208082528351818301528351919283929083019185019080838360005b8381101561015d578181015183820152602001610145565b50505050905090810190601f16801561018a5780820380516001836020036101000a031916815260200191505b509250505060405180910390f35b610123600480360360208110156101ae57600080fd5b503561071b565b610376600480360360a08110156101cb57600080fd5b6001600160a01b038235811692602081013590911691810190606081016040820135600160201b8111156101fe57600080fd5b82018360208201111561021057600080fd5b803590602001918460208302840111600160201b8311171561023157600080fd5b9190808060200260200160405190810160405280939291908181526020018383602002808284376000920191909152509295949360208101935035915050600160201b81111561028057600080fd5b82018360208201111561029257600080fd5b803590602001918460208302840111600160201b831117156102b357600080fd5b9190808060200260200160405190810160405280939291908181526020018383602002808284376000920191909152509295949360208101935035915050600160201b81111561030257600080fd5b82018360208201111561031457600080fd5b803590602001918460018302840111600160201b8311171561033557600080fd5b91908080601f0160208091040260200160405190810160405280939291908181526020018383808284376000920191909152509295506107fc945050505050565b005b61049b6004803603604081101561038e57600080fd5b810190602081018135600160201b8111156103a857600080fd5b8201836020820111156103ba57600080fd5b803590602001918460208302840111600160201b831117156103db57600080fd5b9190808060200260200160405190810160405280939291908181526020018383602002808284376000920191909152509295949360208101935035915050600160201b81111561042a57600080fd5b82018360208201111561043c57600080fd5b803590602001918460208302840111600160201b8311171561045d57600080fd5b9190808060200260200160405190810160405280939291908181526020018383602002808284376000920191909152509295506108b8945050505050565b60408051602080825283518183015283519192839290830191858101910280838360005b838110156104d75781810151838201526020016104bf565b505050509050019250505060405180910390f35b6101236109b9565b6103766004803603604081101561050957600080fd5b506001600160a01b0381351690602001351515610a1a565b6101076004803603604081101561053757600080fd5b506001600160a01b0381358116916020013516610a88565b610376600480360360a081101561056557600080fd5b6001600160a01b03823581169260208101359091169160408201359160608101359181019060a081016080820135600160201b8111156105a457600080fd5b8201836020820111156105b657600080fd5b803590602001918460018302840111600160201b831117156105d757600080fd5b91908080601f016020809104026020016040519081016040528093929190818152602001838380828437600092019190915250929550610ab6945050505050565b6001600160a01b0391909116600090815260208181526040808320938352929052205490565b60006001600160e01b031982166301ffc9a760e01b148061066f57506001600160e01b03198216636cdb3d1360e11b145b1561067c57506001610680565b5060005b919050565b60038054604080516020601f60026000196101006001881615020190951694909404938401819004810282018101909252828152606093909290918301828280156107115780601f106106e657610100808354040283529160200191610711565b820191906000526020600020905b8154815290600101906020018083116106f457829003601f168201915b5050505050905090565b6060600261072883610b6b565b60405160200180838054600181600116156101000203166002900480156107865780601f10610764576101008083540402835291820191610786565b820191906000526020600020905b815481529060010190602001808311610772575b5050825160208401908083835b602083106107b25780518252601f199092019160209182019101610793565b5181516020939093036101000a600019018019909116921691909117905264173539b7b760d91b92019182525060408051808303601a190181526005909201905295945050505050565b336001600160a01b038616148061081857506108188533610a88565b6108535760405162461bcd60e51b815260040180806020018281038252602f8152602001806115a6602f913960400191505060405180910390fd5b6001600160a01b0384166108985760405162461bcd60e51b815260040180806020018281038252603081526020018061154a6030913960400191505060405180910390fd5b6108a485858585610c2e565b6108b18585858585610ed9565b5050505050565b606081518351146108fa5760405162461bcd60e51b815260040180806020018281038252602c81526020018061157a602c913960400191505060405180910390fd5b60608351604051908082528060200260200182016040528015610927578160200160208202803883390190505b50905060005b84518110156109b15760008086838151811061094557fe5b60200260200101516001600160a01b03166001600160a01b03168152602001908152602001600020600085838151811061097b57fe5b602002602001015181526020019081526020016000205482828151811061099e57fe5b602090810291909101015260010161092d565b509392505050565b60048054604080516020601f60026000196101006001881615020190951694909404938401819004810282018101909252828152606093909290918301828280156107115780601f106106e657610100808354040283529160200191610711565b3360008181526001602090815260408083206001600160a01b03871680855290835292819020805460ff1916861515908117909155815190815290519293927f17307eab39ab6107e8899845ad3d59bd9653f200f220920489ca2b5937696c31929181900390910190a35050565b6001600160a01b03918216600090815260016020908152604080832093909416825291909152205460ff1690565b336001600160a01b0386161480610ad25750610ad28533610a88565b610b0d5760405162461bcd60e51b815260040180806020018281038252602a8152602001806114eb602a913960400191505060405180910390fd5b6001600160a01b038416610b525760405162461bcd60e51b815260040180806020018281038252602b8152602001806114c0602b913960400191505060405180910390fd5b610b5e858585856110df565b6108b185858585856111c7565b606081610b9057506040805180820190915260018152600360fc1b6020820152610680565b818060005b8215610ba957600101600a83049250610b95565b6060816040519080825280601f01601f191660200182016040528015610bd6576020820181803883390190505b50905060001982015b8315610c2457600a840660300160f81b82828060019003935081518110610c0257fe5b60200101906001600160f81b031916908160001a905350600a84049350610bdf565b5095945050505050565b8051825114610c6e5760405162461bcd60e51b81526004018080602001828103825260358152602001806115156035913960400191505060405180910390fd5b815160005b81811015610df857610ce9838281518110610c8a57fe5b6020026020010151600080896001600160a01b03166001600160a01b031681526020019081526020016000206000878581518110610cc457fe5b602002602001015181526020019081526020016000205461134990919063ffffffff16565b600080886001600160a01b03166001600160a01b031681526020019081526020016000206000868481518110610d1b57fe5b6020026020010151815260200190815260200160002081905550610da3838281518110610d4457fe5b6020026020010151600080886001600160a01b03166001600160a01b031681526020019081526020016000206000878581518110610d7e57fe5b602002602001015181526020019081526020016000205461139290919063ffffffff16565b600080876001600160a01b03166001600160a01b031681526020019081526020016000206000868481518110610dd557fe5b602090810291909101810151825281019190915260400160002055600101610c73565b50836001600160a01b0316856001600160a01b0316336001600160a01b03167f4a39dc06d4c0dbc64b70af90fd698a233a518aa5d07e595d983b8c0526c8f7fb8686604051808060200180602001838103835285818151815260200191508051906020019060200280838360005b83811015610e7e578181015183820152602001610e66565b50505050905001838103825284818151815260200191508051906020019060200280838360005b83811015610ebd578181015183820152602001610ea5565b5050505090500194505050505060405180910390a45050505050565b610eeb846001600160a01b03166113ec565b156108b1576000846001600160a01b031663bc197c8133888787876040518663ffffffff1660e01b815260040180866001600160a01b03166001600160a01b03168152602001856001600160a01b03166001600160a01b03168152602001806020018060200180602001848103845287818151815260200191508051906020019060200280838360005b83811015610f8d578181015183820152602001610f75565b50505050905001848103835286818151815260200191508051906020019060200280838360005b83811015610fcc578181015183820152602001610fb4565b50505050905001848103825285818151815260200191508051906020019080838360005b83811015611008578181015183820152602001610ff0565b50505050905090810190601f1680156110355780820380516001836020036101000a031916815260200191505b5098505050505050505050602060405180830381600087803b15801561105a57600080fd5b505af115801561106e573d6000803e3d6000fd5b505050506040513d602081101561108457600080fd5b505190506001600160e01b0319811663bc197c8160e01b146110d75760405162461bcd60e51b815260040180806020018281038252603f8152602001806115d5603f913960400191505060405180910390fd5b505050505050565b6001600160a01b038416600090815260208181526040808320858452909152902054611111908263ffffffff61134916565b6001600160a01b038086166000908152602081815260408083208784528252808320949094559186168152808252828120858252909152205461115a908263ffffffff61139216565b6001600160a01b03808516600081815260208181526040808320888452825291829020949094558051868152938401859052805191939288169233927fc3d58168c5ae7397731d063d5bbf3d657854427343f4c083240f7aacaa2d0f62929181900390910190a450505050565b6111d9846001600160a01b03166113ec565b156108b1576000846001600160a01b031663f23a6e6133888787876040518663ffffffff1660e01b815260040180866001600160a01b03166001600160a01b03168152602001856001600160a01b03166001600160a01b0316815260200184815260200183815260200180602001828103825283818151815260200191508051906020019080838360005b8381101561127c578181015183820152602001611264565b50505050905090810190601f1680156112a95780820380516001836020036101000a031916815260200191505b509650505050505050602060405180830381600087803b1580156112cc57600080fd5b505af11580156112e0573d6000803e3d6000fd5b505050506040513d60208110156112f657600080fd5b505190506001600160e01b0319811663f23a6e6160e01b146110d75760405162461bcd60e51b815260040180806020018281038252603a815260200180611614603a913960400191505060405180910390fd5b600061138b83836040518060400160405280601e81526020017f536166654d6174683a207375627472616374696f6e206f766572666c6f770000815250611428565b9392505050565b60008282018381101561138b576040805162461bcd60e51b815260206004820152601b60248201527f536166654d6174683a206164646974696f6e206f766572666c6f770000000000604482015290519081900360640190fd5b6000813f7fc5d2460186f7233c927e7db2dcc703c0e500b653ca82273b7bfad8045d85a47081811480159061142057508115155b949350505050565b600081848411156114b75760405162461bcd60e51b81526004018080602001828103825283818151815260200191508051906020019080838360005b8381101561147c578181015183820152602001611464565b50505050905090810190601f1680156114a95780820380516001836020036101000a031916815260200191505b509250505060405180910390fd5b50505090039056fe4552433131353523736166655472616e7366657246726f6d3a20494e56414c49445f524543495049454e544552433131353523736166655472616e7366657246726f6d3a20494e56414c49445f4f50455241544f5245524331313535235f7361666542617463685472616e7366657246726f6d3a20494e56414c49445f4152524159535f4c454e47544845524331313535237361666542617463685472616e7366657246726f6d3a20494e56414c49445f524543495049454e54455243313135352362616c616e63654f6642617463683a20494e56414c49445f41525241595f4c454e47544845524331313535237361666542617463685472616e7366657246726f6d3a20494e56414c49445f4f50455241544f5245524331313535235f63616c6c6f6e45524331313535426174636852656365697665643a20494e56414c49445f4f4e5f524543454956455f4d45535341474545524331313535235f63616c6c6f6e4552433131353552656365697665643a20494e56414c49445f4f4e5f524543454956455f4d455353414745a265627a7a72315820698c86744412edbe495d3af66223ec8ce7292cc48081fb047489431d554b231764736f6c63430005110032",
  "source": "pragma solidity 0.5.17;\n\nimport \"../erc1155/ERC1155.sol\";\nimport \"../erc1155/ERC1155Metadata.sol\";\nimport \"../erc1155/ERC1155MintBurn.sol\";\n\ncontract MyERC1155 is ERC1155, ERC1155MintBurn, ERC1155Metadata {\n    string private _name;\n    string private _symbol;\n\n    constructor(\n        string memory name,\n        string memory symbol,\n        string memory uri\n    ) public ERC1155() {\n        _name = name;\n        _symbol = symbol;\n        _setBaseMetadataURI(uri);\n    }\n\n    /**\n     * @dev Returns the name of the token.\n     */\n    function name() public view returns (string memory) {\n        return _name;\n    }\n\n    /**\n     * @dev Returns the symbol of the token, usually a shorter version of the\n     * name.\n     */\n    function symbol() public view returns (string memory) {\n        return _symbol;\n    }\n}\n",
  "sourcePath": "/home/lutty/workspace/Web/WebstormProjects/ethhmy-bridge/contracts/lib/MyERC1155.sol",
  "compiler": {
    "name": "solc",
    "version": "0.5.17+commit.d19bba13.Emscripten.clang"
  },
  "schemaVersion": "3.4.3",
  "updatedAt": "2021-10-15T13:15:08.925Z",
  "devdoc": {
    "methods": {
      "balanceOf(address,uint256)": {
        "params": {
          "_id": "ID of the Token",
          "_owner": "The address of the token holder"
        },
        "return": "The _owner's balance of the Token type requested"
      },
      "balanceOfBatch(address[],uint256[])": {
        "params": {
          "_ids": "ID of the Tokens",
          "_owners": "The addresses of the token holders"
        },
        "return": "The _owner's balance of the Token types requested (i.e. balance for each (owner, id) pair)"
      },
      "isApprovedForAll(address,address)": {
        "params": {
          "_operator": "Address of authorized operator",
          "_owner": "The owner of the Tokens"
        },
        "return": "True if the operator is approved, false if not"
      },
      "name()": {
        "details": "Returns the name of the token."
      },
      "safeBatchTransferFrom(address,address,uint256[],uint256[],bytes)": {
        "params": {
          "_amounts": "Transfer amounts per token type",
          "_data": "Additional data with no specified format, sent in call to `_to`",
          "_from": "Source addresses",
          "_ids": "IDs of each token type",
          "_to": "Target addresses"
        }
      },
      "safeTransferFrom(address,address,uint256,uint256,bytes)": {
        "params": {
          "_amount": "Transfered amount",
          "_data": "Additional data with no specified format, sent in call to `_to`",
          "_from": "Source address",
          "_id": "ID of the token type",
          "_to": "Target address"
        }
      },
      "setApprovalForAll(address,bool)": {
        "params": {
          "_approved": "True if the operator is approved, false to revoke approval",
          "_operator": "Address to add to the set of authorized operators"
        }
      },
      "supportsInterface(bytes4)": {
        "params": {
          "_interfaceID": "The interface identifier, as specified in ERC-165"
        },
        "return": "`true` if the contract implements `_interfaceID` and"
      },
      "symbol()": {
        "details": "Returns the symbol of the token, usually a shorter version of the name."
      },
      "uri(uint256)": {
        "details": "URIs are defined in RFC 3986.     URIs are assumed to be deterministically generated based on token ID     Token IDs are assumed to be represented in their hex format in URIs",
        "return": "URI string"
      }
    }
  },
  "userdoc": {
    "methods": {
      "balanceOf(address,uint256)": {
        "notice": "Get the balance of an account's Tokens"
      },
      "balanceOfBatch(address[],uint256[])": {
        "notice": "Get the balance of multiple account/token pairs"
      },
      "isApprovedForAll(address,address)": {
        "notice": "Queries the approval status of an operator for a given owner"
      },
      "safeBatchTransferFrom(address,address,uint256[],uint256[],bytes)": {
        "notice": "Send multiple types of Tokens from the _from address to the _to address (with safety call)"
      },
      "safeTransferFrom(address,address,uint256,uint256,bytes)": {
        "notice": "Transfers amount amount of an _id from the _from address to the _to address specified"
      },
      "setApprovalForAll(address,bool)": {
        "notice": "Enable or disable approval for a third party (\"operator\") to manage all of caller's tokens"
      },
      "supportsInterface(bytes4)": {
        "notice": "Query if a contract implements an interface"
      },
      "uri(uint256)": {
        "notice": "A distinct Uniform Resource Identifier (URI) for a given token."
      }
    }
  }
}